{
  "address": "0x58efa15b89781ec6976a829b9f6e45623ad68429",
  "abi": [
    {
      "inputs": [
        {
          "internalType": "address",
          "name": "_feeToSetter",
          "type": "address"
        }
      ],
      "payable": false,
      "stateMutability": "nonpayable",
      "type": "constructor"
    },
    {
      "anonymous": false,
      "inputs": [
        {
          "indexed": true,
          "internalType": "address",
          "name": "token0",
          "type": "address"
        },
        {
          "indexed": true,
          "internalType": "address",
          "name": "token1",
          "type": "address"
        },
        {
          "indexed": false,
          "internalType": "address",
          "name": "pair",
          "type": "address"
        },
        {
          "indexed": false,
          "internalType": "uint256",
          "name": "",
          "type": "uint256"
        }
      ],
      "name": "PairCreated",
      "type": "event"
    },
    {
      "anonymous": false,
      "inputs": [
        {
          "indexed": true,
          "internalType": "address",
          "name": "hashAddress",
          "type": "address"
        },
        {
          "indexed": true,
          "internalType": "address",
          "name": "token1155",
          "type": "address"
        },
        {
          "indexed": true,
          "internalType": "uint256",
          "name": "token1155Id",
          "type": "uint256"
        }
      ],
      "name": "Registered",
      "type": "event"
    },
    {
      "constant": true,
      "inputs": [
        {
          "internalType": "uint256",
          "name": "",
          "type": "uint256"
        }
      ],
      "name": "allPairs",
      "outputs": [
        {
          "internalType": "address",
          "name": "",
          "type": "address"
        }
      ],
      "payable": false,
      "stateMutability": "view",
      "type": "function"
    },
    {
      "constant": true,
      "inputs": [],
      "name": "allPairsLength",
      "outputs": [
        {
          "internalType": "uint256",
          "name": "",
          "type": "uint256"
        }
      ],
      "payable": false,
      "stateMutability": "view",
      "type": "function"
    },
    {
      "constant": false,
      "inputs": [
        {
          "internalType": "address",
          "name": "tokenA",
          "type": "address"
        },
        {
          "internalType": "address",
          "name": "tokenB",
          "type": "address"
        }
      ],
      "name": "createPair",
      "outputs": [
        {
          "internalType": "address",
          "name": "pair",
          "type": "address"
        }
      ],
      "payable": false,
      "stateMutability": "nonpayable",
      "type": "function"
    },
    {
      "constant": true,
      "inputs": [],
      "name": "feeTo",
      "outputs": [
        {
          "internalType": "address",
          "name": "",
          "type": "address"
        }
      ],
      "payable": false,
      "stateMutability": "view",
      "type": "function"
    },
    {
      "constant": true,
      "inputs": [],
      "name": "feeToSetter",
      "outputs": [
        {
          "internalType": "address",
          "name": "",
          "type": "address"
        }
      ],
      "payable": false,
      "stateMutability": "view",
      "type": "function"
    },
    {
      "constant": true,
      "inputs": [
        {
          "internalType": "address",
          "name": "hashAddress",
          "type": "address"
        }
      ],
      "name": "getOriginInfo",
      "outputs": [
        {
          "internalType": "address",
          "name": "",
          "type": "address"
        },
        {
          "internalType": "uint256",
          "name": "",
          "type": "uint256"
        }
      ],
      "payable": false,
      "stateMutability": "view",
      "type": "function"
    },
    {
      "constant": true,
      "inputs": [
        {
          "internalType": "address",
          "name": "",
          "type": "address"
        },
        {
          "internalType": "address",
          "name": "",
          "type": "address"
        }
      ],
      "name": "getPair",
      "outputs": [
        {
          "internalType": "address",
          "name": "",
          "type": "address"
        }
      ],
      "payable": false,
      "stateMutability": "view",
      "type": "function"
    },
    {
      "constant": true,
      "inputs": [
        {
          "internalType": "address",
          "name": "hashAddress",
          "type": "address"
        }
      ],
      "name": "isOriginERC1155",
      "outputs": [
        {
          "internalType": "bool",
          "name": "",
          "type": "bool"
        }
      ],
      "payable": false,
      "stateMutability": "view",
      "type": "function"
    },
    {
      "constant": true,
      "inputs": [
        {
          "internalType": "address",
          "name": "",
          "type": "address"
        }
      ],
      "name": "originERC1155",
      "outputs": [
        {
          "internalType": "address",
          "name": "",
          "type": "address"
        }
      ],
      "payable": false,
      "stateMutability": "view",
      "type": "function"
    },
    {
      "constant": true,
      "inputs": [
        {
          "internalType": "address",
          "name": "",
          "type": "address"
        }
      ],
      "name": "originId",
      "outputs": [
        {
          "internalType": "uint256",
          "name": "",
          "type": "uint256"
        }
      ],
      "payable": false,
      "stateMutability": "view",
      "type": "function"
    },
    {
      "constant": false,
      "inputs": [
        {
          "internalType": "address",
          "name": "token1155",
          "type": "address"
        },
        {
          "internalType": "uint256",
          "name": "token1155Id",
          "type": "uint256"
        }
      ],
      "name": "register",
      "outputs": [
        {
          "internalType": "address",
          "name": "hashAddress",
          "type": "address"
        }
      ],
      "payable": false,
      "stateMutability": "nonpayable",
      "type": "function"
    },
    {
      "constant": false,
      "inputs": [
        {
          "internalType": "address",
          "name": "_feeTo",
          "type": "address"
        }
      ],
      "name": "setFeeTo",
      "outputs": [],
      "payable": false,
      "stateMutability": "nonpayable",
      "type": "function"
    },
    {
      "constant": false,
      "inputs": [
        {
          "internalType": "address",
          "name": "_feeToSetter",
          "type": "address"
        }
      ],
      "name": "setFeeToSetter",
      "outputs": [],
      "payable": false,
      "stateMutability": "nonpayable",
      "type": "function"
    }
  ],
  "transactionHash": "0xd50fc3c4cdc71dde2490fe830f5a4f599887c574379985d69b4d3dea9b5af99a",
  "args": [
    "0xf3BDFcD50FC4BA48c97194a12c7e9a33422FF962"
  ],
  "numDeployments": 4,
  "solcInputHash": "06f36a5f828b963cce5d7ebc382869aa",
  "bytecode": "0x608060405234801561001057600080fd5b50604051613b26380380613b268339818101604052602081101561003357600080fd5b5051600180546001600160a01b0319166001600160a01b03909216919091179055613ac3806100636000396000f3fe608060405234801561001057600080fd5b50600436106100df5760003560e01c80636d705ebb1161008c578063c9c6539611610066578063c9c653961461028b578063d980e85c146102c6578063e6a439051461030d578063f46901ed14610348576100df565b80636d705ebb146101ba578063879b20b9146101f3578063a2e74af614610256576100df565b80631e3dd18b116100bd5780631e3dd18b14610162578063574f2ba31461017f5780636053657314610187576100df565b8063017e7e58146100e4578063094b7415146101155780630e583df01461011d575b600080fd5b6100ec61037b565b6040805173ffffffffffffffffffffffffffffffffffffffff9092168252519081900360200190f35b6100ec610397565b6101506004803603602081101561013357600080fd5b503573ffffffffffffffffffffffffffffffffffffffff166103b3565b60408051918252519081900360200190f35b6100ec6004803603602081101561017857600080fd5b50356103c5565b6101506103f9565b6100ec6004803603602081101561019d57600080fd5b503573ffffffffffffffffffffffffffffffffffffffff166103ff565b6100ec600480360360408110156101d057600080fd5b5073ffffffffffffffffffffffffffffffffffffffff8135169060200135610427565b6102266004803603602081101561020957600080fd5b503573ffffffffffffffffffffffffffffffffffffffff16610633565b6040805173ffffffffffffffffffffffffffffffffffffffff909316835260208301919091528051918290030190f35b6102896004803603602081101561026c57600080fd5b503573ffffffffffffffffffffffffffffffffffffffff1661066b565b005b6100ec600480360360408110156102a157600080fd5b5073ffffffffffffffffffffffffffffffffffffffff81358116916020013516610738565b6102f9600480360360208110156102dc57600080fd5b503573ffffffffffffffffffffffffffffffffffffffff16610b8b565b604080519115158252519081900360200190f35b6100ec6004803603604081101561032357600080fd5b5073ffffffffffffffffffffffffffffffffffffffff81358116916020013516610bb8565b6102896004803603602081101561035e57600080fd5b503573ffffffffffffffffffffffffffffffffffffffff16610beb565b60005473ffffffffffffffffffffffffffffffffffffffff1681565b60015473ffffffffffffffffffffffffffffffffffffffff1681565b60056020526000908152604090205481565b600381815481106103d257fe5b60009182526020909120015473ffffffffffffffffffffffffffffffffffffffff16905081565b60035490565b60046020526000908152604090205473ffffffffffffffffffffffffffffffffffffffff1681565b604080517f01ffc9a70000000000000000000000000000000000000000000000000000000081527fd9b67a26000000000000000000000000000000000000000000000000000000006004820152905160009173ffffffffffffffffffffffffffffffffffffffff8516916301ffc9a791602480820192602092909190829003018186803b1580156104b757600080fd5b505afa1580156104cb573d6000803e3d6000fd5b505050506040513d60208110156104e157600080fd5b505161054e57604080517f08c379a000000000000000000000000000000000000000000000000000000000815260206004820152601860248201527f496e76616c6964204552433131353520636f6e74726163740000000000000000604482015290519081900360640190fd5b50604080517fffffffffffffffffffffffffffffffffffffffff000000000000000000000000606085901b16602080830191909152603480830185905283518084039091018152605490920180845282519282019290922073ffffffffffffffffffffffffffffffffffffffff81811660008181526004855286812080547fffffffffffffffffffffffff000000000000000000000000000000000000000016938a169384179055600590945294832086905590938593919290917f199098452639b249bef6f727bc09ce903cece47ca72a8518bef9367ad39b6de79190a492915050565b73ffffffffffffffffffffffffffffffffffffffff908116600090815260046020908152604080832054600590925290912054911691565b60015473ffffffffffffffffffffffffffffffffffffffff1633146106f157604080517f08c379a000000000000000000000000000000000000000000000000000000000815260206004820152601460248201527f556e697377617056323a20464f5242494444454e000000000000000000000000604482015290519081900360640190fd5b600180547fffffffffffffffffffffffff00000000000000000000000000000000000000001673ffffffffffffffffffffffffffffffffffffffff92909216919091179055565b60008173ffffffffffffffffffffffffffffffffffffffff168373ffffffffffffffffffffffffffffffffffffffff1614156107d557604080517f08c379a000000000000000000000000000000000000000000000000000000000815260206004820152601e60248201527f556e697377617056323a204944454e544943414c5f4144445245535345530000604482015290519081900360640190fd5b6000808373ffffffffffffffffffffffffffffffffffffffff168573ffffffffffffffffffffffffffffffffffffffff1610610812578385610815565b84845b909250905073ffffffffffffffffffffffffffffffffffffffff821661089c57604080517f08c379a000000000000000000000000000000000000000000000000000000000815260206004820152601760248201527f556e697377617056323a205a45524f5f41444452455353000000000000000000604482015290519081900360640190fd5b73ffffffffffffffffffffffffffffffffffffffff82811660009081526002602090815260408083208585168452909152902054161561093d57604080517f08c379a000000000000000000000000000000000000000000000000000000000815260206004820152601660248201527f556e697377617056323a20504149525f45584953545300000000000000000000604482015290519081900360640190fd5b60606040518060200161094f90610cb8565b6020820181038252601f19601f82011660405250905060008383604051602001808373ffffffffffffffffffffffffffffffffffffffff1673ffffffffffffffffffffffffffffffffffffffff1660601b81526014018273ffffffffffffffffffffffffffffffffffffffff1673ffffffffffffffffffffffffffffffffffffffff1660601b815260140192505050604051602081830303815290604052805190602001209050808251602084016000f5604080517f485cc95500000000000000000000000000000000000000000000000000000000815273ffffffffffffffffffffffffffffffffffffffff8781166004830152868116602483015291519297509087169163485cc9559160448082019260009290919082900301818387803b158015610a7c57600080fd5b505af1158015610a90573d6000803e3d6000fd5b5050505073ffffffffffffffffffffffffffffffffffffffff84811660008181526002602081815260408084208987168086529083528185208054978d167fffffffffffffffffffffffff000000000000000000000000000000000000000098891681179091559383528185208686528352818520805488168517905560038054600181018255958190527fc2575a0e9e593c00f959f8c92f12db2869c3395a3b0502d05e2516446f71f85b90950180549097168417909655925483519283529082015281517f0d3648bd0f6ba80134a33ba9275ac585d9d315f0ad8355cddefde31afa28d0e9929181900390910190a35050505092915050565b73ffffffffffffffffffffffffffffffffffffffff90811660009081526004602052604090205416151590565b600260209081526000928352604080842090915290825290205473ffffffffffffffffffffffffffffffffffffffff1681565b60015473ffffffffffffffffffffffffffffffffffffffff163314610c7157604080517f08c379a000000000000000000000000000000000000000000000000000000000815260206004820152601460248201527f556e697377617056323a20464f5242494444454e000000000000000000000000604482015290519081900360640190fd5b600080547fffffffffffffffffffffffff00000000000000000000000000000000000000001673ffffffffffffffffffffffffffffffffffffffff92909216919091179055565b612dc980610cc68339019056fe60806040526001600c5534801561001557600080fd5b506040514690806052612d778239604080519182900360520182208282018252600a8352692ab734b9bbb0b8102b1960b11b6020938401528151808301835260018152603160f81b908401528151808401919091527fbfcc8ef98ffbf7b6c3fec7bf5185b566b9863e35a9d83acd49ad6824b5969738818301527fc89efdaa54c0f20c7adf612882df0950f5a951637e0307cdcb4c672f298b8bc6606082015260808101949094523060a0808601919091528151808603909101815260c09094019052825192019190912060035550600580546001600160a01b03191633179055612c72806101056000396000f3fe608060405234801561001057600080fd5b50600436106101cf5760003560e01c806370a0823111610104578063bc25cf77116100a2578063dd62ed3e11610071578063dd62ed3e14610656578063f23a6e6114610691578063f59e38b714610768578063fff6cae9146107a3576101cf565b8063bc25cf77146105b5578063c45a0155146105e8578063d21220a7146105f0578063d505accf146105f8576101cf565b806389afcb44116100de57806389afcb441461052057806395d89b411461056c578063a9059cbb14610574578063ba9a7a56146105ad576101cf565b806370a08231146104b25780637464fc3d146104e55780637ecebe00146104ed576101cf565b806330adf81f11610171578063485cc9551161014b578063485cc955146104345780635909c0d51461046f5780635a3d5493146104775780636a6278421461047f576101cf565b806330adf81f14610406578063313ce5671461040e5780633644e5151461042c576101cf565b8063095ea7b3116101ad578063095ea7b31461032b5780630dfe16811461037857806318160ddd146103a957806323b872dd146103c3576101cf565b8063022c0d9f146101d457806306fdde031461026f5780630902f1ac146102ec575b600080fd5b61026d600480360360808110156101ea57600080fd5b81359160208101359173ffffffffffffffffffffffffffffffffffffffff604083013516919081019060808101606082013564010000000081111561022e57600080fd5b82018360208201111561024057600080fd5b8035906020019184600183028401116401000000008311171561026257600080fd5b5090925090506107ab565b005b610277610d5f565b6040805160208082528351818301528351919283929083019185019080838360005b838110156102b1578181015183820152602001610299565b50505050905090810190601f1680156102de5780820380516001836020036101000a031916815260200191505b509250505060405180910390f35b6102f4610d98565b604080516dffffffffffffffffffffffffffff948516815292909316602083015263ffffffff168183015290519081900360600190f35b6103646004803603604081101561034157600080fd5b5073ffffffffffffffffffffffffffffffffffffffff8135169060200135610ded565b604080519115158252519081900360200190f35b610380610e04565b6040805173ffffffffffffffffffffffffffffffffffffffff9092168252519081900360200190f35b6103b1610e20565b60408051918252519081900360200190f35b610364600480360360608110156103d957600080fd5b5073ffffffffffffffffffffffffffffffffffffffff813581169160208101359091169060400135610e26565b6103b1610f05565b610416610f29565b6040805160ff9092168252519081900360200190f35b6103b1610f2e565b61026d6004803603604081101561044a57600080fd5b5073ffffffffffffffffffffffffffffffffffffffff81358116916020013516610f34565b6103b161100d565b6103b1611013565b6103b16004803603602081101561049557600080fd5b503573ffffffffffffffffffffffffffffffffffffffff16611019565b6103b1600480360360208110156104c857600080fd5b503573ffffffffffffffffffffffffffffffffffffffff166112df565b6103b16112f1565b6103b16004803603602081101561050357600080fd5b503573ffffffffffffffffffffffffffffffffffffffff166112f7565b6105536004803603602081101561053657600080fd5b503573ffffffffffffffffffffffffffffffffffffffff16611309565b6040805192835260208301919091528051918290030190f35b61027761157d565b6103646004803603604081101561058a57600080fd5b5073ffffffffffffffffffffffffffffffffffffffff81351690602001356115b6565b6103b16115c3565b61026d600480360360208110156105cb57600080fd5b503573ffffffffffffffffffffffffffffffffffffffff166115c9565b6103806116d5565b6103806116f1565b61026d600480360360e081101561060e57600080fd5b5073ffffffffffffffffffffffffffffffffffffffff813581169160208101359091169060408101359060608101359060ff6080820135169060a08101359060c0013561170d565b6103b16004803603604081101561066c57600080fd5b5073ffffffffffffffffffffffffffffffffffffffff813581169160200135166119d9565b610733600480360360a08110156106a757600080fd5b73ffffffffffffffffffffffffffffffffffffffff823581169260208101359091169160408201359160608101359181019060a0810160808201356401000000008111156106f457600080fd5b82018360208201111561070657600080fd5b8035906020019184600183028401116401000000008311171561072857600080fd5b5090925090506119f6565b604080517fffffffff000000000000000000000000000000000000000000000000000000009092168252519081900360200190f35b6103b16004803603604081101561077e57600080fd5b5073ffffffffffffffffffffffffffffffffffffffff81358116916020013516611a21565b61026d611cc9565b600c5460011461081c57604080517f08c379a000000000000000000000000000000000000000000000000000000000815260206004820152601160248201527f556e697377617056323a204c4f434b4544000000000000000000000000000000604482015290519081900360640190fd5b6000600c558415158061082f5750600084115b610884576040517f08c379a0000000000000000000000000000000000000000000000000000000008152600401808060200182810382526025815260200180612b846025913960400191505060405180910390fd5b60008061088f610d98565b5091509150816dffffffffffffffffffffffffffff16871080156108c25750806dffffffffffffffffffffffffffff1686105b610917576040517f08c379a0000000000000000000000000000000000000000000000000000000008152600401808060200182810382526021815260200180612bcd6021913960400191505060405180910390fd5b600654600754600091829173ffffffffffffffffffffffffffffffffffffffff91821691908116908916821480159061097c57508073ffffffffffffffffffffffffffffffffffffffff168973ffffffffffffffffffffffffffffffffffffffff1614155b6109e757604080517f08c379a000000000000000000000000000000000000000000000000000000000815260206004820152601560248201527f556e697377617056323a20494e56414c49445f544f0000000000000000000000604482015290519081900360640190fd5b8a156109f8576109f8828a8d611dbe565b8915610a0957610a09818a8c611dbe565b8615610aeb578873ffffffffffffffffffffffffffffffffffffffff166310d1e85c338d8d8c8c6040518663ffffffff1660e01b8152600401808673ffffffffffffffffffffffffffffffffffffffff1673ffffffffffffffffffffffffffffffffffffffff168152602001858152602001848152602001806020018281038252848482818152602001925080828437600081840152601f19601f8201169050808301925050509650505050505050600060405180830381600087803b158015610ad257600080fd5b505af1158015610ae6573d6000803e3d6000fd5b505050505b610af58230611a21565b9350610b018130611a21565b92505050600089856dffffffffffffffffffffffffffff16038311610b27576000610b3d565b89856dffffffffffffffffffffffffffff160383035b9050600089856dffffffffffffffffffffffffffff16038311610b61576000610b77565b89856dffffffffffffffffffffffffffff160383035b90506000821180610b885750600081115b610bdd576040517f08c379a0000000000000000000000000000000000000000000000000000000008152600401808060200182810382526024815260200180612ba96024913960400191505060405180910390fd5b6000610c11610bf384600363ffffffff61223d16565b610c05876103e863ffffffff61223d16565b9063ffffffff6122c316565b90506000610c29610bf384600363ffffffff61223d16565b9050610c61620f4240610c556dffffffffffffffffffffffffffff8b8116908b1663ffffffff61223d16565b9063ffffffff61223d16565b610c71838363ffffffff61223d16565b1015610cde57604080517f08c379a000000000000000000000000000000000000000000000000000000000815260206004820152600c60248201527f556e697377617056323a204b0000000000000000000000000000000000000000604482015290519081900360640190fd5b5050610cec84848888612335565b60408051838152602081018390528082018d9052606081018c9052905173ffffffffffffffffffffffffffffffffffffffff8b169133917fd78ad95fa46c994b6551d0da85fc275fe613ce37657fb8d5e3d130840159d8229181900360800190a350506001600c55505050505050505050565b6040518060400160405280600a81526020017f556e69737761702056320000000000000000000000000000000000000000000081525081565b6008546dffffffffffffffffffffffffffff808216926e0100000000000000000000000000008304909116917c0100000000000000000000000000000000000000000000000000000000900463ffffffff1690565b6000610dfa3384846125f1565b5060015b92915050565b60065473ffffffffffffffffffffffffffffffffffffffff1681565b60005481565b73ffffffffffffffffffffffffffffffffffffffff831660009081526002602090815260408083203384529091528120547fffffffffffffffffffffffffffffffffffffffffffffffffffffffffffffffff14610ef05773ffffffffffffffffffffffffffffffffffffffff84166000908152600260209081526040808320338452909152902054610ebe908363ffffffff6122c316565b73ffffffffffffffffffffffffffffffffffffffff851660009081526002602090815260408083203384529091529020555b610efb848484612660565b5060019392505050565b7f6e71edae12b1b97f4d1f60370fef10105fa2faae0126114a169c64845d6126c981565b601281565b60035481565b60055473ffffffffffffffffffffffffffffffffffffffff163314610fba57604080517f08c379a000000000000000000000000000000000000000000000000000000000815260206004820152601460248201527f556e697377617056323a20464f5242494444454e000000000000000000000000604482015290519081900360640190fd5b6006805473ffffffffffffffffffffffffffffffffffffffff9384167fffffffffffffffffffffffff00000000000000000000000000000000000000009182161790915560078054929093169116179055565b60095481565b600a5481565b6000600c5460011461108c57604080517f08c379a000000000000000000000000000000000000000000000000000000000815260206004820152601160248201527f556e697377617056323a204c4f434b4544000000000000000000000000000000604482015290519081900360640190fd5b6000600c8190558061109c610d98565b5060065491935091506000906110c89073ffffffffffffffffffffffffffffffffffffffff1630611a21565b6007549091506000906110f19073ffffffffffffffffffffffffffffffffffffffff1630611a21565b90506000611115836dffffffffffffffffffffffffffff871663ffffffff6122c316565b90506000611139836dffffffffffffffffffffffffffff871663ffffffff6122c316565b905060006111478787612741565b60005490915080611184576111706103e8610c0561116b878763ffffffff61223d16565b6128cd565b985061117f60006103e861291f565b6111e1565b6111de6dffffffffffffffffffffffffffff89166111a8868463ffffffff61223d16565b816111af57fe5b046dffffffffffffffffffffffffffff89166111d1868563ffffffff61223d16565b816111d857fe5b046129cf565b98505b6000891161123a576040517f08c379a0000000000000000000000000000000000000000000000000000000008152600401808060200182810382526028815260200180612c166028913960400191505060405180910390fd5b6112448a8a61291f565b61125086868a8a612335565b81156112925760085461128e906dffffffffffffffffffffffffffff808216916e01000000000000000000000000000090041663ffffffff61223d16565b600b555b6040805185815260208101859052815133927f4c209b5fc8ad50758f13e2e1088ba56a560dff690a1c6fef26394f4c03821c4f928290030190a250506001600c5550949695505050505050565b60016020526000908152604090205481565b600b5481565b60046020526000908152604090205481565b600080600c5460011461137d57604080517f08c379a000000000000000000000000000000000000000000000000000000000815260206004820152601160248201527f556e697377617056323a204c4f434b4544000000000000000000000000000000604482015290519081900360640190fd5b6000600c8190558061138d610d98565b5060065460075492945090925073ffffffffffffffffffffffffffffffffffffffff908116911660006113c08330611a21565b905060006113ce8330611a21565b306000908152600160205260408120549192506113eb8888612741565b60005490915080611402848763ffffffff61223d16565b8161140957fe5b049a508061141d848663ffffffff61223d16565b8161142457fe5b04995060008b118015611437575060008a115b61148c576040517f08c379a0000000000000000000000000000000000000000000000000000000008152600401808060200182810382526028815260200180612bee6028913960400191505060405180910390fd5b61149630846129e7565b6114a1878d8d611dbe565b6114ac868d8c611dbe565b6114b68730611a21565b94506114c28630611a21565b93506114d085858b8b612335565b81156115125760085461150e906dffffffffffffffffffffffffffff808216916e01000000000000000000000000000090041663ffffffff61223d16565b600b555b604080518c8152602081018c9052815173ffffffffffffffffffffffffffffffffffffffff8f169233927fdccd412f0b1252819cb1fd330b93224ca42612892bb3f4f789976e6d81936496929081900390910190a35050505050505050506001600c81905550915091565b6040518060400160405280600681526020017f554e492d5632000000000000000000000000000000000000000000000000000081525081565b6000610dfa338484612660565b6103e881565b600c5460011461163a57604080517f08c379a000000000000000000000000000000000000000000000000000000000815260206004820152601160248201527f556e697377617056323a204c4f434b4544000000000000000000000000000000604482015290519081900360640190fd5b6000600c5560065460075460085473ffffffffffffffffffffffffffffffffffffffff9283169290911690611690908390859061168b906dffffffffffffffffffffffffffff16610c058430611a21565b611dbe565b6008546116cb908290859061168b906e01000000000000000000000000000090046dffffffffffffffffffffffffffff16610c058430611a21565b50506001600c5550565b60055473ffffffffffffffffffffffffffffffffffffffff1681565b60075473ffffffffffffffffffffffffffffffffffffffff1681565b4284101561177c57604080517f08c379a000000000000000000000000000000000000000000000000000000000815260206004820152601260248201527f556e697377617056323a20455850495245440000000000000000000000000000604482015290519081900360640190fd5b60035473ffffffffffffffffffffffffffffffffffffffff80891660008181526004602090815260408083208054600180820190925582517f6e71edae12b1b97f4d1f60370fef10105fa2faae0126114a169c64845d6126c98186015280840196909652958d166060860152608085018c905260a085019590955260c08085018b90528151808603909101815260e0850182528051908301207f19010000000000000000000000000000000000000000000000000000000000006101008601526101028501969096526101228085019690965280518085039096018652610142840180825286519683019690962095839052610162840180825286905260ff89166101828501526101a284018890526101c28401879052519193926101e2808201937fffffffffffffffffffffffffffffffffffffffffffffffffffffffffffffffe081019281900390910190855afa1580156118dd573d6000803e3d6000fd5b50506040517fffffffffffffffffffffffffffffffffffffffffffffffffffffffffffffffe0015191505073ffffffffffffffffffffffffffffffffffffffff81161580159061195857508873ffffffffffffffffffffffffffffffffffffffff168173ffffffffffffffffffffffffffffffffffffffff16145b6119c357604080517f08c379a000000000000000000000000000000000000000000000000000000000815260206004820152601c60248201527f556e697377617056323a20494e56414c49445f5349474e415455524500000000604482015290519081900360640190fd5b6119ce8989896125f1565b505050505050505050565b600260209081526000928352604080842090915290825290205481565b7ff23a6e61000000000000000000000000000000000000000000000000000000009695505050505050565b600554604080517fd980e85c00000000000000000000000000000000000000000000000000000000815273ffffffffffffffffffffffffffffffffffffffff85811660048301529151600093929092169163d980e85c91602480820192602092909190829003018186803b158015611a9857600080fd5b505afa158015611aac573d6000803e3d6000fd5b505050506040513d6020811015611ac257600080fd5b505115611c1957600554604080517f879b20b900000000000000000000000000000000000000000000000000000000815273ffffffffffffffffffffffffffffffffffffffff86811660048301528251600094859492169263879b20b9926024808301939192829003018186803b158015611b3c57600080fd5b505afa158015611b50573d6000803e3d6000fd5b505050506040513d6040811015611b6657600080fd5b508051602091820151604080517efdd58e00000000000000000000000000000000000000000000000000000000815273ffffffffffffffffffffffffffffffffffffffff898116600483015260248201849052915193965091945085169262fdd58e92604480840193829003018186803b158015611be357600080fd5b505afa158015611bf7573d6000803e3d6000fd5b505050506040513d6020811015611c0d57600080fd5b50519250610dfe915050565b8273ffffffffffffffffffffffffffffffffffffffff166370a08231836040518263ffffffff1660e01b8152600401808273ffffffffffffffffffffffffffffffffffffffff1673ffffffffffffffffffffffffffffffffffffffff16815260200191505060206040518083038186803b158015611c9657600080fd5b505afa158015611caa573d6000803e3d6000fd5b505050506040513d6020811015611cc057600080fd5b50519050610dfe565b600c54600114611d3a57604080517f08c379a000000000000000000000000000000000000000000000000000000000815260206004820152601160248201527f556e697377617056323a204c4f434b4544000000000000000000000000000000604482015290519081900360640190fd5b6000600c55600654611db790611d669073ffffffffffffffffffffffffffffffffffffffff1630611a21565b600754611d899073ffffffffffffffffffffffffffffffffffffffff1630611a21565b6008546dffffffffffffffffffffffffffff808216916e010000000000000000000000000000900416612335565b6001600c55565b600554604080517fd980e85c00000000000000000000000000000000000000000000000000000000815273ffffffffffffffffffffffffffffffffffffffff86811660048301529151919092169163d980e85c916024808301926020929190829003018186803b158015611e3157600080fd5b505afa158015611e45573d6000803e3d6000fd5b505050506040513d6020811015611e5b57600080fd5b50511561202f57600554604080517f879b20b900000000000000000000000000000000000000000000000000000000815273ffffffffffffffffffffffffffffffffffffffff86811660048301528251600094859492169263879b20b9926024808301939192829003018186803b158015611ed557600080fd5b505afa158015611ee9573d6000803e3d6000fd5b505050506040513d6040811015611eff57600080fd5b508051602091820151604080516000808252948101918290527ff242432a000000000000000000000000000000000000000000000000000000008252306024820181815273ffffffffffffffffffffffffffffffffffffffff8b8116604485015260648401869052608484018b905260a060a48501908152845160c48601819052979a5095985089169663f242432a9692958c958a958d9590949360e486019291908190849084905b83811015611fc0578181015183820152602001611fa8565b50505050905090810190601f168015611fed5780820380516001836020036101000a031916815260200191505b509650505050505050600060405180830381600087803b15801561201057600080fd5b505af1158015612024573d6000803e3d6000fd5b505050505050612238565b604080518082018252601981527f7472616e7366657228616464726573732c75696e743235362900000000000000602091820152815173ffffffffffffffffffffffffffffffffffffffff85811660248301526044808301869052845180840390910181526064909201845291810180517bffffffffffffffffffffffffffffffffffffffffffffffffffffffff167fa9059cbb000000000000000000000000000000000000000000000000000000001781529251815160009460609489169392918291908083835b6020831061213557805182527fffffffffffffffffffffffffffffffffffffffffffffffffffffffffffffffe090920191602091820191016120f8565b6001836020036101000a0380198251168184511680821785525050505050509050019150506000604051808303816000865af19150503d8060008114612197576040519150601f19603f3d011682016040523d82523d6000602084013e61219c565b606091505b50915091508180156121ca5750805115806121ca57508080602001905160208110156121c757600080fd5b50515b61223557604080517f08c379a000000000000000000000000000000000000000000000000000000000815260206004820152601a60248201527f556e697377617056323a205452414e534645525f4641494c4544000000000000604482015290519081900360640190fd5b50505b505050565b60008115806122585750508082028282828161225557fe5b04145b610dfe57604080517f08c379a000000000000000000000000000000000000000000000000000000000815260206004820152601460248201527f64732d6d6174682d6d756c2d6f766572666c6f77000000000000000000000000604482015290519081900360640190fd5b80820382811115610dfe57604080517f08c379a000000000000000000000000000000000000000000000000000000000815260206004820152601560248201527f64732d6d6174682d7375622d756e646572666c6f770000000000000000000000604482015290519081900360640190fd5b6dffffffffffffffffffffffffffff841180159061236157506dffffffffffffffffffffffffffff8311155b6123cc57604080517f08c379a000000000000000000000000000000000000000000000000000000000815260206004820152601360248201527f556e697377617056323a204f564552464c4f5700000000000000000000000000604482015290519081900360640190fd5b60085463ffffffff428116917c01000000000000000000000000000000000000000000000000000000009004811682039081161580159061241c57506dffffffffffffffffffffffffffff841615155b801561243757506dffffffffffffffffffffffffffff831615155b156124e7578063ffffffff1661247a8561245086612aac565b7bffffffffffffffffffffffffffffffffffffffffffffffffffffffff169063ffffffff612ad016565b600980547bffffffffffffffffffffffffffffffffffffffffffffffffffffffff929092169290920201905563ffffffff81166124ba8461245087612aac565b600a80547bffffffffffffffffffffffffffffffffffffffffffffffffffffffff92909216929092020190555b600880547fffffffffffffffffffffffffffffffffffff0000000000000000000000000000166dffffffffffffffffffffffffffff888116919091177fffffffff0000000000000000000000000000ffffffffffffffffffffffffffff166e0100000000000000000000000000008883168102919091177bffffffffffffffffffffffffffffffffffffffffffffffffffffffff167c010000000000000000000000000000000000000000000000000000000063ffffffff871602179283905560408051848416815291909304909116602082015281517f1c411e9a96e071241c2f21f7726b17ae89e3cab4c78be50e062b03a9fffbbad1929181900390910190a1505050505050565b73ffffffffffffffffffffffffffffffffffffffff808416600081815260026020908152604080832094871680845294825291829020859055815185815291517f8c5be1e5ebec7d5bd14f71427d1e84f3dd0314c0f7b2291e5b200ac8c7c3b9259281900390910190a3505050565b73ffffffffffffffffffffffffffffffffffffffff8316600090815260016020526040902054612696908263ffffffff6122c316565b73ffffffffffffffffffffffffffffffffffffffff80851660009081526001602052604080822093909355908416815220546126d8908263ffffffff612b1116565b73ffffffffffffffffffffffffffffffffffffffff80841660008181526001602090815260409182902094909455805185815290519193928716927fddf252ad1be2c89b69c2b068fc378daa952ba7f163c4a11628f55a4df523b3ef92918290030190a3505050565b600080600560009054906101000a900473ffffffffffffffffffffffffffffffffffffffff1673ffffffffffffffffffffffffffffffffffffffff1663017e7e586040518163ffffffff1660e01b815260040160206040518083038186803b1580156127ac57600080fd5b505afa1580156127c0573d6000803e3d6000fd5b505050506040513d60208110156127d657600080fd5b5051600b5473ffffffffffffffffffffffffffffffffffffffff82161580159450919250906128b95780156128b457600061282d61116b6dffffffffffffffffffffffffffff88811690881663ffffffff61223d16565b9050600061283a836128cd565b9050808211156128b1576000612868612859848463ffffffff6122c316565b6000549063ffffffff61223d16565b9050600061288d8361288186600563ffffffff61223d16565b9063ffffffff612b1116565b9050600081838161289a57fe5b04905080156128ad576128ad878261291f565b5050505b50505b6128c5565b80156128c5576000600b555b505092915050565b60006003821115612910575080600160028204015b8181101561290a578091506002818285816128f957fe5b04018161290257fe5b0490506128e2565b5061291a565b811561291a575060015b919050565b600054612932908263ffffffff612b1116565b600090815573ffffffffffffffffffffffffffffffffffffffff831681526001602052604090205461296a908263ffffffff612b1116565b73ffffffffffffffffffffffffffffffffffffffff831660008181526001602090815260408083209490945583518581529351929391927fddf252ad1be2c89b69c2b068fc378daa952ba7f163c4a11628f55a4df523b3ef9281900390910190a35050565b60008183106129de57816129e0565b825b9392505050565b73ffffffffffffffffffffffffffffffffffffffff8216600090815260016020526040902054612a1d908263ffffffff6122c316565b73ffffffffffffffffffffffffffffffffffffffff831660009081526001602052604081209190915554612a57908263ffffffff6122c316565b600090815560408051838152905173ffffffffffffffffffffffffffffffffffffffff8516917fddf252ad1be2c89b69c2b068fc378daa952ba7f163c4a11628f55a4df523b3ef919081900360200190a35050565b6dffffffffffffffffffffffffffff166e0100000000000000000000000000000290565b60006dffffffffffffffffffffffffffff82167bffffffffffffffffffffffffffffffffffffffffffffffffffffffff841681612b0957fe5b049392505050565b80820182811015610dfe57604080517f08c379a000000000000000000000000000000000000000000000000000000000815260206004820152601460248201527f64732d6d6174682d6164642d6f766572666c6f77000000000000000000000000604482015290519081900360640190fdfe556e697377617056323a20494e53554646494349454e545f4f55545055545f414d4f554e54556e697377617056323a20494e53554646494349454e545f494e5055545f414d4f554e54556e697377617056323a20494e53554646494349454e545f4c4951554944495459556e697377617056323a20494e53554646494349454e545f4c49515549444954595f4255524e4544556e697377617056323a20494e53554646494349454e545f4c49515549444954595f4d494e544544a265627a7a7231582079c8db40e370baade3c4296aa55932d4b1a1247085c7d2743fc4d7a8ac17837e64736f6c63430005100032454950373132446f6d61696e28737472696e67206e616d652c737472696e672076657273696f6e2c75696e7432353620636861696e49642c6164647265737320766572696679696e67436f6e747261637429a265627a7a7231582049d79b54ec1183f18d6a372181d4516568d592673a011ef713cf0f1289eef25d64736f6c63430005100032",
  "devdoc": {
    "methods": {}
  },
  "userdoc": {
    "methods": {}
  },
  "storageLayout": {
    "storage": [
      {
        "astId": 396,
        "contract": "contracts/UniswapV2Factory.sol:UniswapV2Factory",
        "label": "feeTo",
        "offset": 0,
        "slot": "0",
        "type": "t_address"
      },
      {
        "astId": 398,
        "contract": "contracts/UniswapV2Factory.sol:UniswapV2Factory",
        "label": "feeToSetter",
        "offset": 0,
        "slot": "1",
        "type": "t_address"
      },
      {
        "astId": 404,
        "contract": "contracts/UniswapV2Factory.sol:UniswapV2Factory",
        "label": "getPair",
        "offset": 0,
        "slot": "2",
        "type": "t_mapping(t_address,t_mapping(t_address,t_address))"
      },
      {
        "astId": 407,
        "contract": "contracts/UniswapV2Factory.sol:UniswapV2Factory",
        "label": "allPairs",
        "offset": 0,
        "slot": "3",
        "type": "t_array(t_address)dyn_storage"
      },
      {
        "astId": 411,
        "contract": "contracts/UniswapV2Factory.sol:UniswapV2Factory",
        "label": "originERC1155",
        "offset": 0,
        "slot": "4",
        "type": "t_mapping(t_address,t_address)"
      },
      {
        "astId": 415,
        "contract": "contracts/UniswapV2Factory.sol:UniswapV2Factory",
        "label": "originId",
        "offset": 0,
        "slot": "5",
        "type": "t_mapping(t_address,t_uint256)"
      }
    ],
    "types": {
      "t_address": {
        "encoding": "inplace",
        "label": "address",
        "numberOfBytes": "20"
      },
      "t_array(t_address)dyn_storage": {
        "base": "t_address",
        "encoding": "dynamic_array",
        "label": "address[]",
        "numberOfBytes": "32"
      },
      "t_mapping(t_address,t_address)": {
        "encoding": "mapping",
        "key": "t_address",
        "label": "mapping(address => address)",
        "numberOfBytes": "32",
        "value": "t_address"
      },
      "t_mapping(t_address,t_mapping(t_address,t_address))": {
        "encoding": "mapping",
        "key": "t_address",
        "label": "mapping(address => mapping(address => address))",
        "numberOfBytes": "32",
        "value": "t_mapping(t_address,t_address)"
      },
      "t_mapping(t_address,t_uint256)": {
        "encoding": "mapping",
        "key": "t_address",
        "label": "mapping(address => uint256)",
        "numberOfBytes": "32",
        "value": "t_uint256"
      },
      "t_uint256": {
        "encoding": "inplace",
        "label": "uint256",
        "numberOfBytes": "32"
      }
    }
  }
}