{
  "address": "0xa1bf45AF7cDe8c105054611383E8ae3dA65615a3",
  "abi": [
    {
      "inputs": [
        {
          "internalType": "address",
          "name": "_feeToSetter",
          "type": "address"
        }
      ],
      "payable": false,
      "stateMutability": "nonpayable",
      "type": "constructor"
    },
    {
      "anonymous": false,
      "inputs": [
        {
          "indexed": true,
          "internalType": "address",
          "name": "token0",
          "type": "address"
        },
        {
          "indexed": true,
          "internalType": "address",
          "name": "token1",
          "type": "address"
        },
        {
          "indexed": false,
          "internalType": "address",
          "name": "pair",
          "type": "address"
        },
        {
          "indexed": false,
          "internalType": "uint256",
          "name": "",
          "type": "uint256"
        }
      ],
      "name": "PairCreated",
      "type": "event"
    },
    {
      "anonymous": false,
      "inputs": [
        {
          "indexed": true,
          "internalType": "address",
          "name": "hashAddress",
          "type": "address"
        },
        {
          "indexed": true,
          "internalType": "address",
          "name": "token1155",
          "type": "address"
        },
        {
          "indexed": true,
          "internalType": "uint256",
          "name": "token1155Id",
          "type": "uint256"
        }
      ],
      "name": "Registered",
      "type": "event"
    },
    {
      "constant": true,
      "inputs": [
        {
          "internalType": "uint256",
          "name": "",
          "type": "uint256"
        }
      ],
      "name": "allPairs",
      "outputs": [
        {
          "internalType": "address",
          "name": "",
          "type": "address"
        }
      ],
      "payable": false,
      "stateMutability": "view",
      "type": "function"
    },
    {
      "constant": true,
      "inputs": [],
      "name": "allPairsLength",
      "outputs": [
        {
          "internalType": "uint256",
          "name": "",
          "type": "uint256"
        }
      ],
      "payable": false,
      "stateMutability": "view",
      "type": "function"
    },
    {
      "constant": false,
      "inputs": [
        {
          "internalType": "address",
          "name": "tokenA",
          "type": "address"
        },
        {
          "internalType": "address",
          "name": "tokenB",
          "type": "address"
        }
      ],
      "name": "createPair",
      "outputs": [
        {
          "internalType": "address",
          "name": "pair",
          "type": "address"
        }
      ],
      "payable": false,
      "stateMutability": "nonpayable",
      "type": "function"
    },
    {
      "constant": true,
      "inputs": [],
      "name": "feeTo",
      "outputs": [
        {
          "internalType": "address",
          "name": "",
          "type": "address"
        }
      ],
      "payable": false,
      "stateMutability": "view",
      "type": "function"
    },
    {
      "constant": true,
      "inputs": [],
      "name": "feeToSetter",
      "outputs": [
        {
          "internalType": "address",
          "name": "",
          "type": "address"
        }
      ],
      "payable": false,
      "stateMutability": "view",
      "type": "function"
    },
    {
      "constant": true,
      "inputs": [
        {
          "internalType": "address",
          "name": "hashAddress",
          "type": "address"
        }
      ],
      "name": "getOriginInfo",
      "outputs": [
        {
          "internalType": "address",
          "name": "",
          "type": "address"
        },
        {
          "internalType": "uint256",
          "name": "",
          "type": "uint256"
        }
      ],
      "payable": false,
      "stateMutability": "view",
      "type": "function"
    },
    {
      "constant": true,
      "inputs": [
        {
          "internalType": "address",
          "name": "",
          "type": "address"
        },
        {
          "internalType": "address",
          "name": "",
          "type": "address"
        }
      ],
      "name": "getPair",
      "outputs": [
        {
          "internalType": "address",
          "name": "",
          "type": "address"
        }
      ],
      "payable": false,
      "stateMutability": "view",
      "type": "function"
    },
    {
      "constant": true,
      "inputs": [
        {
          "internalType": "address",
          "name": "hashAddress",
          "type": "address"
        }
      ],
      "name": "isOriginERC1155",
      "outputs": [
        {
          "internalType": "bool",
          "name": "",
          "type": "bool"
        }
      ],
      "payable": false,
      "stateMutability": "view",
      "type": "function"
    },
    {
      "constant": true,
      "inputs": [
        {
          "internalType": "address",
          "name": "",
          "type": "address"
        }
      ],
      "name": "originERC1155",
      "outputs": [
        {
          "internalType": "address",
          "name": "",
          "type": "address"
        }
      ],
      "payable": false,
      "stateMutability": "view",
      "type": "function"
    },
    {
      "constant": true,
      "inputs": [
        {
          "internalType": "address",
          "name": "",
          "type": "address"
        }
      ],
      "name": "originId",
      "outputs": [
        {
          "internalType": "uint256",
          "name": "",
          "type": "uint256"
        }
      ],
      "payable": false,
      "stateMutability": "view",
      "type": "function"
    },
    {
      "constant": false,
      "inputs": [
        {
          "internalType": "address",
          "name": "token1155",
          "type": "address"
        },
        {
          "internalType": "uint256",
          "name": "token1155Id",
          "type": "uint256"
        }
      ],
      "name": "register",
      "outputs": [
        {
          "internalType": "address",
          "name": "hashAddress",
          "type": "address"
        }
      ],
      "payable": false,
      "stateMutability": "nonpayable",
      "type": "function"
    },
    {
      "constant": false,
      "inputs": [
        {
          "internalType": "address",
          "name": "_feeTo",
          "type": "address"
        }
      ],
      "name": "setFeeTo",
      "outputs": [],
      "payable": false,
      "stateMutability": "nonpayable",
      "type": "function"
    },
    {
      "constant": false,
      "inputs": [
        {
          "internalType": "address",
          "name": "_feeToSetter",
          "type": "address"
        }
      ],
      "name": "setFeeToSetter",
      "outputs": [],
      "payable": false,
      "stateMutability": "nonpayable",
      "type": "function"
    }
  ],
  "transactionHash": "0x3c26603bd973664fab9b161f512e206e83fbfe8f938e52a6b07f66c2953c3940",
  "args": [
    "0xf3BDFcD50FC4BA48c97194a12c7e9a33422FF962"
  ],
  "numDeployments": 1,
  "solcInputHash": "d4d612acc972313787f25ff6129c7380",
  "bytecode": "0x608060405234801561001057600080fd5b50604051612e67380380612e678339818101604052602081101561003357600080fd5b5051600180546001600160a01b0319166001600160a01b03909216919091179055612e04806100636000396000f3fe608060405234801561001057600080fd5b50600436106100cf5760003560e01c80636d705ebb1161008c578063c9c6539611610066578063c9c6539614610220578063d980e85c1461024e578063e6a4390514610288578063f46901ed146102b6576100cf565b80636d705ebb14610183578063879b20b9146101af578063a2e74af6146101f8576100cf565b8063017e7e58146100d4578063094b7415146100f85780630e583df0146101005780631e3dd18b14610138578063574f2ba314610155578063605365731461015d575b600080fd5b6100dc6102dc565b604080516001600160a01b039092168252519081900360200190f35b6100dc6102eb565b6101266004803603602081101561011657600080fd5b50356001600160a01b03166102fa565b60408051918252519081900360200190f35b6100dc6004803603602081101561014e57600080fd5b503561030c565b610126610333565b6100dc6004803603602081101561017357600080fd5b50356001600160a01b0316610339565b6100dc6004803603604081101561019957600080fd5b506001600160a01b038135169060200135610354565b6101d5600480360360208110156101c557600080fd5b50356001600160a01b03166104cf565b604080516001600160a01b03909316835260208301919091528051918290030190f35b61021e6004803603602081101561020e57600080fd5b50356001600160a01b03166104fa565b005b6100dc6004803603604081101561023657600080fd5b506001600160a01b0381358116916020013516610572565b6102746004803603602081101561026457600080fd5b50356001600160a01b03166108a3565b604080519115158252519081900360200190f35b6100dc6004803603604081101561029e57600080fd5b506001600160a01b03813581169160200135166108c3565b61021e600480360360208110156102cc57600080fd5b50356001600160a01b03166108e9565b6000546001600160a01b031681565b6001546001600160a01b031681565b60056020526000908152604090205481565b6003818154811061031957fe5b6000918252602090912001546001600160a01b0316905081565b60035490565b6004602052600090815260409020546001600160a01b031681565b604080516301ffc9a760e01b8152636cdb3d1360e11b600482015290516000916001600160a01b038516916301ffc9a791602480820192602092909190829003018186803b1580156103a557600080fd5b505afa1580156103b9573d6000803e3d6000fd5b505050506040513d60208110156103cf57600080fd5b5051610422576040805162461bcd60e51b815260206004820152601860248201527f496e76616c6964204552433131353520636f6e74726163740000000000000000604482015290519081900360640190fd5b50604080516bffffffffffffffffffffffff19606085901b1660208083019190915260348083018590528351808403909101815260549092018084528251928201929092206001600160a01b0381811660008181526004855286812080546001600160a01b031916938a169384179055600590945294832086905590938593919290917f199098452639b249bef6f727bc09ce903cece47ca72a8518bef9367ad39b6de79190a492915050565b6001600160a01b03908116600090815260046020908152604080832054600590925290912054911691565b6001546001600160a01b03163314610550576040805162461bcd60e51b81526020600482015260146024820152732ab734b9bbb0b82b191d102327a92124a22222a760611b604482015290519081900360640190fd5b600180546001600160a01b0319166001600160a01b0392909216919091179055565b6000816001600160a01b0316836001600160a01b031614156105db576040805162461bcd60e51b815260206004820152601e60248201527f556e697377617056323a204944454e544943414c5f4144445245535345530000604482015290519081900360640190fd5b600080836001600160a01b0316856001600160a01b0316106105fe578385610601565b84845b90925090506001600160a01b038216610661576040805162461bcd60e51b815260206004820152601760248201527f556e697377617056323a205a45524f5f41444452455353000000000000000000604482015290519081900360640190fd5b6001600160a01b038281166000908152600260209081526040808320858516845290915290205416156106d4576040805162461bcd60e51b8152602060048201526016602482015275556e697377617056323a20504149525f45584953545360501b604482015290519081900360640190fd5b6060604051806020016106e690610961565b6020820181038252601f19601f8201166040525090506000838360405160200180836001600160a01b03166001600160a01b031660601b8152601401826001600160a01b03166001600160a01b031660601b815260140192505050604051602081830303815290604052805190602001209050808251602084016000f56040805163485cc95560e01b81526001600160a01b038781166004830152868116602483015291519297509087169163485cc9559160448082019260009290919082900301818387803b1580156107b957600080fd5b505af11580156107cd573d6000803e3d6000fd5b505050506001600160a01b0384811660008181526002602081815260408084208987168086529083528185208054978d166001600160a01b031998891681179091559383528185208686528352818520805488168517905560038054600181018255958190527fc2575a0e9e593c00f959f8c92f12db2869c3395a3b0502d05e2516446f71f85b90950180549097168417909655925483519283529082015281517f0d3648bd0f6ba80134a33ba9275ac585d9d315f0ad8355cddefde31afa28d0e9929181900390910190a35050505092915050565b6001600160a01b0390811660009081526004602052604090205416151590565b60026020908152600092835260408084209091529082529020546001600160a01b031681565b6001546001600160a01b0316331461093f576040805162461bcd60e51b81526020600482015260146024820152732ab734b9bbb0b82b191d102327a92124a22222a760611b604482015290519081900360640190fd5b600080546001600160a01b0319166001600160a01b0392909216919091179055565b6124618061096f8339019056fe60806040526001600c5534801561001557600080fd5b50604051469080605261240f8239604080519182900360520182208282018252600a8352692ab734b9bbb0b8102b1960b11b6020938401528151808301835260018152603160f81b908401528151808401919091527fbfcc8ef98ffbf7b6c3fec7bf5185b566b9863e35a9d83acd49ad6824b5969738818301527fc89efdaa54c0f20c7adf612882df0950f5a951637e0307cdcb4c672f298b8bc6606082015260808101949094523060a0808601919091528151808603909101815260c09094019052825192019190912060035550600580546001600160a01b0319163317905561230a806101056000396000f3fe608060405234801561001057600080fd5b50600436106101cf5760003560e01c806370a0823111610104578063bc25cf77116100a2578063dd62ed3e11610071578063dd62ed3e146105b3578063f23a6e61146105e1578063f59e38b714610693578063fff6cae9146106c1576101cf565b8063bc25cf771461052c578063c45a015514610552578063d21220a71461055a578063d505accf14610562576101cf565b806389afcb44116100de57806389afcb44146104b157806395d89b41146104f0578063a9059cbb146104f8578063ba9a7a5614610524576101cf565b806370a082311461045d5780637464fc3d146104835780637ecebe001461048b576101cf565b806330adf81f11610171578063485cc9551161014b578063485cc955146103f95780635909c0d5146104275780635a3d54931461042f5780636a62784214610437576101cf565b806330adf81f146103cb578063313ce567146103d35780633644e515146103f1576101cf565b8063095ea7b3116101ad578063095ea7b3146103175780630dfe16811461035757806318160ddd1461037b57806323b872dd14610395576101cf565b8063022c0d9f146101d457806306fdde03146102625780630902f1ac146102df575b600080fd5b610260600480360360808110156101ea57600080fd5b8135916020810135916001600160a01b03604083013516919081019060808101606082013564010000000081111561022157600080fd5b82018360208201111561023357600080fd5b8035906020019184600183028401116401000000008311171561025557600080fd5b5090925090506106c9565b005b61026a610b30565b6040805160208082528351818301528351919283929083019185019080838360005b838110156102a457818101518382015260200161028c565b50505050905090810190601f1680156102d15780820380516001836020036101000a031916815260200191505b509250505060405180910390f35b6102e7610b56565b604080516001600160701b03948516815292909316602083015263ffffffff168183015290519081900360600190f35b6103436004803603604081101561032d57600080fd5b506001600160a01b038135169060200135610b80565b604080519115158252519081900360200190f35b61035f610b97565b604080516001600160a01b039092168252519081900360200190f35b610383610ba6565b60408051918252519081900360200190f35b610343600480360360608110156103ab57600080fd5b506001600160a01b03813581169160208101359091169060400135610bac565b610383610c46565b6103db610c6a565b6040805160ff9092168252519081900360200190f35b610383610c6f565b6102606004803603604081101561040f57600080fd5b506001600160a01b0381358116916020013516610c75565b610383610cf9565b610383610cff565b6103836004803603602081101561044d57600080fd5b50356001600160a01b0316610d05565b6103836004803603602081101561047357600080fd5b50356001600160a01b0316610f43565b610383610f55565b610383600480360360208110156104a157600080fd5b50356001600160a01b0316610f5b565b6104d7600480360360208110156104c757600080fd5b50356001600160a01b0316610f6d565b6040805192835260208301919091528051918290030190f35b61026a611175565b6103436004803603604081101561050e57600080fd5b506001600160a01b038135169060200135611197565b6103836111a4565b6102606004803603602081101561054257600080fd5b50356001600160a01b03166111aa565b61035f61126a565b61035f611279565b610260600480360360e081101561057857600080fd5b506001600160a01b03813581169160208101359091169060408101359060608101359060ff6080820135169060a08101359060c00135611288565b610383600480360360408110156105c957600080fd5b506001600160a01b038135811691602001351661148a565b610676600480360360a08110156105f757600080fd5b6001600160a01b03823581169260208101359091169160408201359160608101359181019060a08101608082013564010000000081111561063757600080fd5b82018360208201111561064957600080fd5b8035906020019184600183028401116401000000008311171561066b57600080fd5b5090925090506114a7565b604080516001600160e01b03199092168252519081900360200190f35b610383600480360360408110156106a957600080fd5b506001600160a01b03813581169160200135166114b9565b6102606116c8565b600c54600114610714576040805162461bcd60e51b8152602060048201526011602482015270155b9a5cddd85c158c8e881313d0d2d151607a1b604482015290519081900360640190fd5b6000600c55841515806107275750600084115b6107625760405162461bcd60e51b815260040180806020018281038252602581526020018061221c6025913960400191505060405180910390fd5b60008061076d610b56565b5091509150816001600160701b0316871080156107925750806001600160701b031686105b6107cd5760405162461bcd60e51b81526004018080602001828103825260218152602001806122656021913960400191505060405180910390fd5b60065460075460009182916001600160a01b0391821691908116908916821480159061080b5750806001600160a01b0316896001600160a01b031614155b610854576040805162461bcd60e51b8152602060048201526015602482015274556e697377617056323a20494e56414c49445f544f60581b604482015290519081900360640190fd5b8a1561086557610865828a8d61176b565b891561087657610876818a8c61176b565b861561093157886001600160a01b03166310d1e85c338d8d8c8c6040518663ffffffff1660e01b815260040180866001600160a01b03166001600160a01b03168152602001858152602001848152602001806020018281038252848482818152602001925080828437600081840152601f19601f8201169050808301925050509650505050505050600060405180830381600087803b15801561091857600080fd5b505af115801561092c573d6000803e3d6000fd5b505050505b61093b82306114b9565b935061094781306114b9565b92505050600089856001600160701b0316038311610966576000610975565b89856001600160701b03160383035b9050600089856001600160701b03160383116109925760006109a1565b89856001600160701b03160383035b905060008211806109b25750600081115b6109ed5760405162461bcd60e51b81526004018080602001828103825260248152602001806122416024913960400191505060405180910390fd5b6000610a21610a0384600363ffffffff611b0516565b610a15876103e863ffffffff611b0516565b9063ffffffff611b6816565b90506000610a39610a0384600363ffffffff611b0516565b9050610a6a620f4240610a5e6001600160701b038b8116908b1663ffffffff611b0516565b9063ffffffff611b0516565b610a7a838363ffffffff611b0516565b1015610abc576040805162461bcd60e51b815260206004820152600c60248201526b556e697377617056323a204b60a01b604482015290519081900360640190fd5b5050610aca84848888611bb8565b60408051838152602081018390528082018d9052606081018c905290516001600160a01b038b169133917fd78ad95fa46c994b6551d0da85fc275fe613ce37657fb8d5e3d130840159d8229181900360800190a350506001600c55505050505050505050565b6040518060400160405280600a8152602001692ab734b9bbb0b8102b1960b11b81525081565b6008546001600160701b0380821692600160701b830490911691600160e01b900463ffffffff1690565b6000610b8d338484611d7d565b5060015b92915050565b6006546001600160a01b031681565b60005481565b6001600160a01b038316600090815260026020908152604080832033845290915281205460001914610c31576001600160a01b0384166000908152600260209081526040808320338452909152902054610c0c908363ffffffff611b6816565b6001600160a01b03851660009081526002602090815260408083203384529091529020555b610c3c848484611ddf565b5060019392505050565b7f6e71edae12b1b97f4d1f60370fef10105fa2faae0126114a169c64845d6126c981565b601281565b60035481565b6005546001600160a01b03163314610ccb576040805162461bcd60e51b81526020600482015260146024820152732ab734b9bbb0b82b191d102327a92124a22222a760611b604482015290519081900360640190fd5b600680546001600160a01b039384166001600160a01b03199182161790915560078054929093169116179055565b60095481565b600a5481565b6000600c54600114610d52576040805162461bcd60e51b8152602060048201526011602482015270155b9a5cddd85c158c8e881313d0d2d151607a1b604482015290519081900360640190fd5b6000600c81905580610d62610b56565b506006549193509150600090610d81906001600160a01b0316306114b9565b600754909150600090610d9d906001600160a01b0316306114b9565b90506000610dba836001600160701b03871663ffffffff611b6816565b90506000610dd7836001600160701b03871663ffffffff611b6816565b90506000610de58787611e99565b60005490915080610e2257610e0e6103e8610a15610e09878763ffffffff611b0516565b611ff7565b9850610e1d60006103e8612049565b610e71565b610e6e6001600160701b038916610e3f868463ffffffff611b0516565b81610e4657fe5b046001600160701b038916610e61868563ffffffff611b0516565b81610e6857fe5b046120df565b98505b60008911610eb05760405162461bcd60e51b81526004018080602001828103825260288152602001806122ae6028913960400191505060405180910390fd5b610eba8a8a612049565b610ec686868a8a611bb8565b8115610ef657600854610ef2906001600160701b0380821691600160701b90041663ffffffff611b0516565b600b555b6040805185815260208101859052815133927f4c209b5fc8ad50758f13e2e1088ba56a560dff690a1c6fef26394f4c03821c4f928290030190a250506001600c5550949695505050505050565b60016020526000908152604090205481565b600b5481565b60046020526000908152604090205481565b600080600c54600114610fbb576040805162461bcd60e51b8152602060048201526011602482015270155b9a5cddd85c158c8e881313d0d2d151607a1b604482015290519081900360640190fd5b6000600c81905580610fcb610b56565b506006546007549294509092506001600160a01b0390811691166000610ff183306114b9565b90506000610fff83306114b9565b3060009081526001602052604081205491925061101c8888611e99565b60005490915080611033848763ffffffff611b0516565b8161103a57fe5b049a508061104e848663ffffffff611b0516565b8161105557fe5b04995060008b118015611068575060008a115b6110a35760405162461bcd60e51b81526004018080602001828103825260288152602001806122866028913960400191505060405180910390fd5b6110ad30846120f7565b6110b8878d8d61176b565b6110c3868d8c61176b565b6110cd87306114b9565b94506110d986306114b9565b93506110e785858b8b611bb8565b811561111757600854611113906001600160701b0380821691600160701b90041663ffffffff611b0516565b600b555b604080518c8152602081018c905281516001600160a01b038f169233927fdccd412f0b1252819cb1fd330b93224ca42612892bb3f4f789976e6d81936496929081900390910190a35050505050505050506001600c81905550915091565b604051806040016040528060068152602001652aa72496ab1960d11b81525081565b6000610b8d338484611ddf565b6103e881565b600c546001146111f5576040805162461bcd60e51b8152602060048201526011602482015270155b9a5cddd85c158c8e881313d0d2d151607a1b604482015290519081900360640190fd5b6000600c556006546007546008546001600160a01b0392831692909116906112379083908590611232906001600160701b0316610a1584306114b9565b61176b565b600854611260908290859061123290600160701b90046001600160701b0316610a1584306114b9565b50506001600c5550565b6005546001600160a01b031681565b6007546001600160a01b031681565b428410156112d2576040805162461bcd60e51b8152602060048201526012602482015271155b9a5cddd85c158c8e881156141254915160721b604482015290519081900360640190fd5b6003546001600160a01b0380891660008181526004602090815260408083208054600180820190925582517f6e71edae12b1b97f4d1f60370fef10105fa2faae0126114a169c64845d6126c98186015280840196909652958d166060860152608085018c905260a085019590955260c08085018b90528151808603909101815260e08501825280519083012061190160f01b6101008601526101028501969096526101228085019690965280518085039096018652610142840180825286519683019690962095839052610162840180825286905260ff89166101828501526101a284018890526101c28401879052519193926101e280820193601f1981019281900390910190855afa1580156113ed573d6000803e3d6000fd5b5050604051601f1901519150506001600160a01b038116158015906114235750886001600160a01b0316816001600160a01b0316145b611474576040805162461bcd60e51b815260206004820152601c60248201527f556e697377617056323a20494e56414c49445f5349474e415455524500000000604482015290519081900360640190fd5b61147f898989611d7d565b505050505050505050565b600260209081526000928352604080842090915290825290205481565b63f23a6e6160e01b9695505050505050565b600554604080516336603a1760e21b81526001600160a01b0385811660048301529151600093929092169163d980e85c91602480820192602092909190829003018186803b15801561150a57600080fd5b505afa15801561151e573d6000803e3d6000fd5b505050506040513d602081101561153457600080fd5b50511561163f576005546040805163879b20b960e01b81526001600160a01b0386811660048301528251600094859492169263879b20b9926024808301939192829003018186803b15801561158857600080fd5b505afa15801561159c573d6000803e3d6000fd5b505050506040513d60408110156115b257600080fd5b50805160209182015160408051627eeac760e11b81526001600160a01b03898116600483015260248201849052915193965091945085169262fdd58e92604480840193829003018186803b15801561160957600080fd5b505afa15801561161d573d6000803e3d6000fd5b505050506040513d602081101561163357600080fd5b50519250610b91915050565b826001600160a01b03166370a08231836040518263ffffffff1660e01b815260040180826001600160a01b03166001600160a01b0316815260200191505060206040518083038186803b15801561169557600080fd5b505afa1580156116a9573d6000803e3d6000fd5b505050506040513d60208110156116bf57600080fd5b50519050610b91565b600c54600114611713576040805162461bcd60e51b8152602060048201526011602482015270155b9a5cddd85c158c8e881313d0d2d151607a1b604482015290519081900360640190fd5b6000600c5560065461176490611732906001600160a01b0316306114b9565b600754611748906001600160a01b0316306114b9565b6008546001600160701b0380821691600160701b900416611bb8565b6001600c55565b600554604080516336603a1760e21b81526001600160a01b0386811660048301529151919092169163d980e85c916024808301926020929190829003018186803b1580156117b857600080fd5b505afa1580156117cc573d6000803e3d6000fd5b505050506040513d60208110156117e257600080fd5b50511561196a576005546040805163879b20b960e01b81526001600160a01b0386811660048301528251600094859492169263879b20b9926024808301939192829003018186803b15801561183657600080fd5b505afa15801561184a573d6000803e3d6000fd5b505050506040513d604081101561186057600080fd5b50805160209182015160408051600080825294810191829052637921219560e11b825230602482018181526001600160a01b038b8116604485015260648401869052608484018b905260a060a48501908152845160c48601819052979a5095985089169663f242432a9692958c958a958d9590949360e486019291908190849084905b838110156118fb5781810151838201526020016118e3565b50505050905090810190601f1680156119285780820380516001836020036101000a031916815260200191505b509650505050505050600060405180830381600087803b15801561194b57600080fd5b505af115801561195f573d6000803e3d6000fd5b505050505050611b00565b604080518082018252601981527f7472616e7366657228616464726573732c75696e74323536290000000000000060209182015281516001600160a01b0385811660248301526044808301869052845180840390910181526064909201845291810180516001600160e01b031663a9059cbb60e01b1781529251815160009460609489169392918291908083835b60208310611a175780518252601f1990920191602091820191016119f8565b6001836020036101000a0380198251168184511680821785525050505050509050019150506000604051808303816000865af19150503d8060008114611a79576040519150601f19603f3d011682016040523d82523d6000602084013e611a7e565b606091505b5091509150818015611aac575080511580611aac5750808060200190516020811015611aa957600080fd5b50515b611afd576040805162461bcd60e51b815260206004820152601a60248201527f556e697377617056323a205452414e534645525f4641494c4544000000000000604482015290519081900360640190fd5b50505b505050565b6000811580611b2057505080820282828281611b1d57fe5b04145b610b91576040805162461bcd60e51b815260206004820152601460248201527364732d6d6174682d6d756c2d6f766572666c6f7760601b604482015290519081900360640190fd5b80820382811115610b91576040805162461bcd60e51b815260206004820152601560248201527464732d6d6174682d7375622d756e646572666c6f7760581b604482015290519081900360640190fd5b6001600160701b038411801590611bd657506001600160701b038311155b611c1d576040805162461bcd60e51b8152602060048201526013602482015272556e697377617056323a204f564552464c4f5760681b604482015290519081900360640190fd5b60085463ffffffff42811691600160e01b90048116820390811615801590611c4d57506001600160701b03841615155b8015611c6157506001600160701b03831615155b15611cd2578063ffffffff16611c8f85611c7a86612195565b6001600160e01b03169063ffffffff6121a716565b600980546001600160e01b03929092169290920201905563ffffffff8116611cba84611c7a87612195565b600a80546001600160e01b0392909216929092020190555b600880546dffffffffffffffffffffffffffff19166001600160701b03888116919091176dffffffffffffffffffffffffffff60701b1916600160701b8883168102919091176001600160e01b0316600160e01b63ffffffff871602179283905560408051848416815291909304909116602082015281517f1c411e9a96e071241c2f21f7726b17ae89e3cab4c78be50e062b03a9fffbbad1929181900390910190a1505050505050565b6001600160a01b03808416600081815260026020908152604080832094871680845294825291829020859055815185815291517f8c5be1e5ebec7d5bd14f71427d1e84f3dd0314c0f7b2291e5b200ac8c7c3b9259281900390910190a3505050565b6001600160a01b038316600090815260016020526040902054611e08908263ffffffff611b6816565b6001600160a01b038085166000908152600160205260408082209390935590841681522054611e3d908263ffffffff6121cc16565b6001600160a01b0380841660008181526001602090815260409182902094909455805185815290519193928716927fddf252ad1be2c89b69c2b068fc378daa952ba7f163c4a11628f55a4df523b3ef92918290030190a3505050565b600080600560009054906101000a90046001600160a01b03166001600160a01b031663017e7e586040518163ffffffff1660e01b815260040160206040518083038186803b158015611eea57600080fd5b505afa158015611efe573d6000803e3d6000fd5b505050506040513d6020811015611f1457600080fd5b5051600b546001600160a01b038216158015945091925090611fe3578015611fde576000611f57610e096001600160701b0388811690881663ffffffff611b0516565b90506000611f6483611ff7565b905080821115611fdb576000611f92611f83848463ffffffff611b6816565b6000549063ffffffff611b0516565b90506000611fb783611fab86600563ffffffff611b0516565b9063ffffffff6121cc16565b90506000818381611fc457fe5b0490508015611fd757611fd78782612049565b5050505b50505b611fef565b8015611fef576000600b555b505092915050565b6000600382111561203a575080600160028204015b818110156120345780915060028182858161202357fe5b04018161202c57fe5b04905061200c565b50612044565b8115612044575060015b919050565b60005461205c908263ffffffff6121cc16565b60009081556001600160a01b038316815260016020526040902054612087908263ffffffff6121cc16565b6001600160a01b03831660008181526001602090815260408083209490945583518581529351929391927fddf252ad1be2c89b69c2b068fc378daa952ba7f163c4a11628f55a4df523b3ef9281900390910190a35050565b60008183106120ee57816120f0565b825b9392505050565b6001600160a01b038216600090815260016020526040902054612120908263ffffffff611b6816565b6001600160a01b0383166000908152600160205260408120919091555461214d908263ffffffff611b6816565b60009081556040805183815290516001600160a01b038516917fddf252ad1be2c89b69c2b068fc378daa952ba7f163c4a11628f55a4df523b3ef919081900360200190a35050565b6001600160701b0316600160701b0290565b60006001600160701b0382166001600160e01b038416816121c457fe5b049392505050565b80820182811015610b91576040805162461bcd60e51b815260206004820152601460248201527364732d6d6174682d6164642d6f766572666c6f7760601b604482015290519081900360640190fdfe556e697377617056323a20494e53554646494349454e545f4f55545055545f414d4f554e54556e697377617056323a20494e53554646494349454e545f494e5055545f414d4f554e54556e697377617056323a20494e53554646494349454e545f4c4951554944495459556e697377617056323a20494e53554646494349454e545f4c49515549444954595f4255524e4544556e697377617056323a20494e53554646494349454e545f4c49515549444954595f4d494e544544a265627a7a7231582080ee3be9e7e08e4e2bf3b60538443c27411431b9f2c7935cb4ab5f0551a400e764736f6c63430005100032454950373132446f6d61696e28737472696e67206e616d652c737472696e672076657273696f6e2c75696e7432353620636861696e49642c6164647265737320766572696679696e67436f6e747261637429a265627a7a723158200de8e7f613ee22a06ee161fbbec4b69e607d58ab0d7bf200b8f2d68f54727f5264736f6c63430005100032",
  "devdoc": {
    "methods": {}
  },
  "userdoc": {
    "methods": {}
  },
  "storageLayout": {
    "storage": [
      {
        "astId": 396,
        "contract": "contracts/UniswapV2Factory.sol:UniswapV2Factory",
        "label": "feeTo",
        "offset": 0,
        "slot": "0",
        "type": "t_address"
      },
      {
        "astId": 398,
        "contract": "contracts/UniswapV2Factory.sol:UniswapV2Factory",
        "label": "feeToSetter",
        "offset": 0,
        "slot": "1",
        "type": "t_address"
      },
      {
        "astId": 404,
        "contract": "contracts/UniswapV2Factory.sol:UniswapV2Factory",
        "label": "getPair",
        "offset": 0,
        "slot": "2",
        "type": "t_mapping(t_address,t_mapping(t_address,t_address))"
      },
      {
        "astId": 407,
        "contract": "contracts/UniswapV2Factory.sol:UniswapV2Factory",
        "label": "allPairs",
        "offset": 0,
        "slot": "3",
        "type": "t_array(t_address)dyn_storage"
      },
      {
        "astId": 411,
        "contract": "contracts/UniswapV2Factory.sol:UniswapV2Factory",
        "label": "originERC1155",
        "offset": 0,
        "slot": "4",
        "type": "t_mapping(t_address,t_address)"
      },
      {
        "astId": 415,
        "contract": "contracts/UniswapV2Factory.sol:UniswapV2Factory",
        "label": "originId",
        "offset": 0,
        "slot": "5",
        "type": "t_mapping(t_address,t_uint256)"
      }
    ],
    "types": {
      "t_address": {
        "encoding": "inplace",
        "label": "address",
        "numberOfBytes": "20"
      },
      "t_array(t_address)dyn_storage": {
        "base": "t_address",
        "encoding": "dynamic_array",
        "label": "address[]",
        "numberOfBytes": "32"
      },
      "t_mapping(t_address,t_address)": {
        "encoding": "mapping",
        "key": "t_address",
        "label": "mapping(address => address)",
        "numberOfBytes": "32",
        "value": "t_address"
      },
      "t_mapping(t_address,t_mapping(t_address,t_address))": {
        "encoding": "mapping",
        "key": "t_address",
        "label": "mapping(address => mapping(address => address))",
        "numberOfBytes": "32",
        "value": "t_mapping(t_address,t_address)"
      },
      "t_mapping(t_address,t_uint256)": {
        "encoding": "mapping",
        "key": "t_address",
        "label": "mapping(address => uint256)",
        "numberOfBytes": "32",
        "value": "t_uint256"
      },
      "t_uint256": {
        "encoding": "inplace",
        "label": "uint256",
        "numberOfBytes": "32"
      }
    }
  }
}