{
  "address": "0x9f524cEe47d5f940eeb0Bba4419Bb176A722c51A",
  "abi": [
    {
      "inputs": [
        {
          "internalType": "address",
          "name": "_factory",
          "type": "address"
        },
        {
          "internalType": "address",
          "name": "_WETH",
          "type": "address"
        }
      ],
      "stateMutability": "nonpayable",
      "type": "constructor"
    },
    {
      "inputs": [],
      "name": "WETH",
      "outputs": [
        {
          "internalType": "address",
          "name": "",
          "type": "address"
        }
      ],
      "stateMutability": "view",
      "type": "function"
    },
    {
      "inputs": [
        {
          "internalType": "address",
          "name": "tokenA",
          "type": "address"
        },
        {
          "internalType": "address",
          "name": "tokenB",
          "type": "address"
        },
        {
          "internalType": "uint256",
          "name": "amountADesired",
          "type": "uint256"
        },
        {
          "internalType": "uint256",
          "name": "amountBDesired",
          "type": "uint256"
        },
        {
          "internalType": "uint256",
          "name": "amountAMin",
          "type": "uint256"
        },
        {
          "internalType": "uint256",
          "name": "amountBMin",
          "type": "uint256"
        },
        {
          "internalType": "address",
          "name": "to",
          "type": "address"
        },
        {
          "internalType": "uint256",
          "name": "deadline",
          "type": "uint256"
        }
      ],
      "name": "addLiquidity",
      "outputs": [
        {
          "internalType": "uint256",
          "name": "amountA",
          "type": "uint256"
        },
        {
          "internalType": "uint256",
          "name": "amountB",
          "type": "uint256"
        },
        {
          "internalType": "uint256",
          "name": "liquidity",
          "type": "uint256"
        }
      ],
      "stateMutability": "nonpayable",
      "type": "function"
    },
    {
      "inputs": [
        {
          "internalType": "address",
          "name": "token1155",
          "type": "address"
        },
        {
          "internalType": "uint256",
          "name": "token1155Id",
          "type": "uint256"
        },
        {
          "internalType": "address",
          "name": "tokenB",
          "type": "address"
        },
        {
          "internalType": "uint256",
          "name": "amountADesired",
          "type": "uint256"
        },
        {
          "internalType": "uint256",
          "name": "amountBDesired",
          "type": "uint256"
        },
        {
          "internalType": "uint256",
          "name": "amountAMin",
          "type": "uint256"
        },
        {
          "internalType": "uint256",
          "name": "amountBMin",
          "type": "uint256"
        },
        {
          "internalType": "address",
          "name": "to",
          "type": "address"
        },
        {
          "internalType": "uint256",
          "name": "deadline",
          "type": "uint256"
        }
      ],
      "name": "addLiquidity1155",
      "outputs": [
        {
          "internalType": "uint256",
          "name": "amountA",
          "type": "uint256"
        },
        {
          "internalType": "uint256",
          "name": "amountB",
          "type": "uint256"
        },
        {
          "internalType": "uint256",
          "name": "liquidity",
          "type": "uint256"
        }
      ],
      "stateMutability": "nonpayable",
      "type": "function"
    },
    {
      "inputs": [
        {
          "internalType": "address",
          "name": "token",
          "type": "address"
        },
        {
          "internalType": "uint256",
          "name": "amountTokenDesired",
          "type": "uint256"
        },
        {
          "internalType": "uint256",
          "name": "amountTokenMin",
          "type": "uint256"
        },
        {
          "internalType": "uint256",
          "name": "amountETHMin",
          "type": "uint256"
        },
        {
          "internalType": "address",
          "name": "to",
          "type": "address"
        },
        {
          "internalType": "uint256",
          "name": "deadline",
          "type": "uint256"
        }
      ],
      "name": "addLiquidityETH",
      "outputs": [
        {
          "internalType": "uint256",
          "name": "amountToken",
          "type": "uint256"
        },
        {
          "internalType": "uint256",
          "name": "amountETH",
          "type": "uint256"
        },
        {
          "internalType": "uint256",
          "name": "liquidity",
          "type": "uint256"
        }
      ],
      "stateMutability": "payable",
      "type": "function"
    },
    {
      "inputs": [
        {
          "internalType": "address",
          "name": "token1155",
          "type": "address"
        },
        {
          "internalType": "uint256",
          "name": "token1155Id",
          "type": "uint256"
        },
        {
          "internalType": "uint256",
          "name": "amountTokenDesired",
          "type": "uint256"
        },
        {
          "internalType": "uint256",
          "name": "amountTokenMin",
          "type": "uint256"
        },
        {
          "internalType": "uint256",
          "name": "amountETHMin",
          "type": "uint256"
        },
        {
          "internalType": "address",
          "name": "to",
          "type": "address"
        },
        {
          "internalType": "uint256",
          "name": "deadline",
          "type": "uint256"
        }
      ],
      "name": "addLiquidityETH1155",
      "outputs": [
        {
          "internalType": "uint256",
          "name": "amountToken",
          "type": "uint256"
        },
        {
          "internalType": "uint256",
          "name": "amountETH",
          "type": "uint256"
        },
        {
          "internalType": "uint256",
          "name": "liquidity",
          "type": "uint256"
        }
      ],
      "stateMutability": "payable",
      "type": "function"
    },
    {
      "inputs": [],
      "name": "factory",
      "outputs": [
        {
          "internalType": "address",
          "name": "",
          "type": "address"
        }
      ],
      "stateMutability": "view",
      "type": "function"
    },
    {
      "inputs": [
        {
          "internalType": "uint256",
          "name": "amountOut",
          "type": "uint256"
        },
        {
          "internalType": "uint256",
          "name": "reserveIn",
          "type": "uint256"
        },
        {
          "internalType": "uint256",
          "name": "reserveOut",
          "type": "uint256"
        }
      ],
      "name": "getAmountIn",
      "outputs": [
        {
          "internalType": "uint256",
          "name": "amountIn",
          "type": "uint256"
        }
      ],
      "stateMutability": "pure",
      "type": "function"
    },
    {
      "inputs": [
        {
          "internalType": "uint256",
          "name": "amountIn",
          "type": "uint256"
        },
        {
          "internalType": "uint256",
          "name": "reserveIn",
          "type": "uint256"
        },
        {
          "internalType": "uint256",
          "name": "reserveOut",
          "type": "uint256"
        }
      ],
      "name": "getAmountOut",
      "outputs": [
        {
          "internalType": "uint256",
          "name": "amountOut",
          "type": "uint256"
        }
      ],
      "stateMutability": "pure",
      "type": "function"
    },
    {
      "inputs": [
        {
          "internalType": "uint256",
          "name": "amountOut",
          "type": "uint256"
        },
        {
          "internalType": "address[]",
          "name": "path",
          "type": "address[]"
        }
      ],
      "name": "getAmountsIn",
      "outputs": [
        {
          "internalType": "uint256[]",
          "name": "amounts",
          "type": "uint256[]"
        }
      ],
      "stateMutability": "view",
      "type": "function"
    },
    {
      "inputs": [
        {
          "internalType": "uint256",
          "name": "amountIn",
          "type": "uint256"
        },
        {
          "internalType": "address[]",
          "name": "path",
          "type": "address[]"
        }
      ],
      "name": "getAmountsOut",
      "outputs": [
        {
          "internalType": "uint256[]",
          "name": "amounts",
          "type": "uint256[]"
        }
      ],
      "stateMutability": "view",
      "type": "function"
    },
    {
      "inputs": [
        {
          "internalType": "address",
          "name": "",
          "type": "address"
        },
        {
          "internalType": "address",
          "name": "",
          "type": "address"
        },
        {
          "internalType": "uint256",
          "name": "",
          "type": "uint256"
        },
        {
          "internalType": "uint256",
          "name": "",
          "type": "uint256"
        },
        {
          "internalType": "bytes",
          "name": "",
          "type": "bytes"
        }
      ],
      "name": "onERC1155Received",
      "outputs": [
        {
          "internalType": "bytes4",
          "name": "",
          "type": "bytes4"
        }
      ],
      "stateMutability": "pure",
      "type": "function"
    },
    {
      "inputs": [
        {
          "internalType": "uint256",
          "name": "amountA",
          "type": "uint256"
        },
        {
          "internalType": "uint256",
          "name": "reserveA",
          "type": "uint256"
        },
        {
          "internalType": "uint256",
          "name": "reserveB",
          "type": "uint256"
        }
      ],
      "name": "quote",
      "outputs": [
        {
          "internalType": "uint256",
          "name": "amountB",
          "type": "uint256"
        }
      ],
      "stateMutability": "pure",
      "type": "function"
    },
    {
      "inputs": [
        {
          "internalType": "address",
          "name": "tokenA",
          "type": "address"
        },
        {
          "internalType": "address",
          "name": "tokenB",
          "type": "address"
        },
        {
          "internalType": "uint256",
          "name": "liquidity",
          "type": "uint256"
        },
        {
          "internalType": "uint256",
          "name": "amountAMin",
          "type": "uint256"
        },
        {
          "internalType": "uint256",
          "name": "amountBMin",
          "type": "uint256"
        },
        {
          "internalType": "address",
          "name": "to",
          "type": "address"
        },
        {
          "internalType": "uint256",
          "name": "deadline",
          "type": "uint256"
        }
      ],
      "name": "removeLiquidity",
      "outputs": [
        {
          "internalType": "uint256",
          "name": "amountA",
          "type": "uint256"
        },
        {
          "internalType": "uint256",
          "name": "amountB",
          "type": "uint256"
        }
      ],
      "stateMutability": "nonpayable",
      "type": "function"
    },
    {
      "inputs": [
        {
          "internalType": "address",
          "name": "token",
          "type": "address"
        },
        {
          "internalType": "uint256",
          "name": "liquidity",
          "type": "uint256"
        },
        {
          "internalType": "uint256",
          "name": "amountTokenMin",
          "type": "uint256"
        },
        {
          "internalType": "uint256",
          "name": "amountETHMin",
          "type": "uint256"
        },
        {
          "internalType": "address",
          "name": "to",
          "type": "address"
        },
        {
          "internalType": "uint256",
          "name": "deadline",
          "type": "uint256"
        }
      ],
      "name": "removeLiquidityETH",
      "outputs": [
        {
          "internalType": "uint256",
          "name": "amountToken",
          "type": "uint256"
        },
        {
          "internalType": "uint256",
          "name": "amountETH",
          "type": "uint256"
        }
      ],
      "stateMutability": "nonpayable",
      "type": "function"
    },
    {
      "inputs": [
        {
          "internalType": "address",
          "name": "token",
          "type": "address"
        },
        {
          "internalType": "uint256",
          "name": "liquidity",
          "type": "uint256"
        },
        {
          "internalType": "uint256",
          "name": "amountTokenMin",
          "type": "uint256"
        },
        {
          "internalType": "uint256",
          "name": "amountETHMin",
          "type": "uint256"
        },
        {
          "internalType": "address",
          "name": "to",
          "type": "address"
        },
        {
          "internalType": "uint256",
          "name": "deadline",
          "type": "uint256"
        }
      ],
      "name": "removeLiquidityETHSupportingFeeOnTransferTokens",
      "outputs": [
        {
          "internalType": "uint256",
          "name": "amountETH",
          "type": "uint256"
        }
      ],
      "stateMutability": "nonpayable",
      "type": "function"
    },
    {
      "inputs": [
        {
          "internalType": "address",
          "name": "token",
          "type": "address"
        },
        {
          "internalType": "uint256",
          "name": "liquidity",
          "type": "uint256"
        },
        {
          "internalType": "uint256",
          "name": "amountTokenMin",
          "type": "uint256"
        },
        {
          "internalType": "uint256",
          "name": "amountETHMin",
          "type": "uint256"
        },
        {
          "internalType": "address",
          "name": "to",
          "type": "address"
        },
        {
          "internalType": "uint256",
          "name": "deadline",
          "type": "uint256"
        },
        {
          "internalType": "bool",
          "name": "approveMax",
          "type": "bool"
        },
        {
          "internalType": "uint8",
          "name": "v",
          "type": "uint8"
        },
        {
          "internalType": "bytes32",
          "name": "r",
          "type": "bytes32"
        },
        {
          "internalType": "bytes32",
          "name": "s",
          "type": "bytes32"
        }
      ],
      "name": "removeLiquidityETHWithPermit",
      "outputs": [
        {
          "internalType": "uint256",
          "name": "amountToken",
          "type": "uint256"
        },
        {
          "internalType": "uint256",
          "name": "amountETH",
          "type": "uint256"
        }
      ],
      "stateMutability": "nonpayable",
      "type": "function"
    },
    {
      "inputs": [
        {
          "internalType": "address",
          "name": "token",
          "type": "address"
        },
        {
          "internalType": "uint256",
          "name": "liquidity",
          "type": "uint256"
        },
        {
          "internalType": "uint256",
          "name": "amountTokenMin",
          "type": "uint256"
        },
        {
          "internalType": "uint256",
          "name": "amountETHMin",
          "type": "uint256"
        },
        {
          "internalType": "address",
          "name": "to",
          "type": "address"
        },
        {
          "internalType": "uint256",
          "name": "deadline",
          "type": "uint256"
        },
        {
          "internalType": "bool",
          "name": "approveMax",
          "type": "bool"
        },
        {
          "internalType": "uint8",
          "name": "v",
          "type": "uint8"
        },
        {
          "internalType": "bytes32",
          "name": "r",
          "type": "bytes32"
        },
        {
          "internalType": "bytes32",
          "name": "s",
          "type": "bytes32"
        }
      ],
      "name": "removeLiquidityETHWithPermitSupportingFeeOnTransferTokens",
      "outputs": [
        {
          "internalType": "uint256",
          "name": "amountETH",
          "type": "uint256"
        }
      ],
      "stateMutability": "nonpayable",
      "type": "function"
    },
    {
      "inputs": [
        {
          "internalType": "address",
          "name": "tokenA",
          "type": "address"
        },
        {
          "internalType": "address",
          "name": "tokenB",
          "type": "address"
        },
        {
          "internalType": "uint256",
          "name": "liquidity",
          "type": "uint256"
        },
        {
          "internalType": "uint256",
          "name": "amountAMin",
          "type": "uint256"
        },
        {
          "internalType": "uint256",
          "name": "amountBMin",
          "type": "uint256"
        },
        {
          "internalType": "address",
          "name": "to",
          "type": "address"
        },
        {
          "internalType": "uint256",
          "name": "deadline",
          "type": "uint256"
        },
        {
          "internalType": "bool",
          "name": "approveMax",
          "type": "bool"
        },
        {
          "internalType": "uint8",
          "name": "v",
          "type": "uint8"
        },
        {
          "internalType": "bytes32",
          "name": "r",
          "type": "bytes32"
        },
        {
          "internalType": "bytes32",
          "name": "s",
          "type": "bytes32"
        }
      ],
      "name": "removeLiquidityWithPermit",
      "outputs": [
        {
          "internalType": "uint256",
          "name": "amountA",
          "type": "uint256"
        },
        {
          "internalType": "uint256",
          "name": "amountB",
          "type": "uint256"
        }
      ],
      "stateMutability": "nonpayable",
      "type": "function"
    },
    {
      "inputs": [
        {
          "internalType": "address",
          "name": "token",
          "type": "address"
        },
        {
          "internalType": "address",
          "name": "account",
          "type": "address"
        }
      ],
      "name": "smartBalanceOf",
      "outputs": [
        {
          "internalType": "uint256",
          "name": "",
          "type": "uint256"
        }
      ],
      "stateMutability": "view",
      "type": "function"
    },
    {
      "inputs": [
        {
          "internalType": "uint256",
          "name": "amountOut",
          "type": "uint256"
        },
        {
          "internalType": "address[]",
          "name": "path",
          "type": "address[]"
        },
        {
          "internalType": "address",
          "name": "to",
          "type": "address"
        },
        {
          "internalType": "uint256",
          "name": "deadline",
          "type": "uint256"
        }
      ],
      "name": "swapETHForExactTokens",
      "outputs": [
        {
          "internalType": "uint256[]",
          "name": "amounts",
          "type": "uint256[]"
        }
      ],
      "stateMutability": "payable",
      "type": "function"
    },
    {
      "inputs": [
        {
          "internalType": "uint256",
          "name": "amountOutMin",
          "type": "uint256"
        },
        {
          "internalType": "address[]",
          "name": "path",
          "type": "address[]"
        },
        {
          "internalType": "address",
          "name": "to",
          "type": "address"
        },
        {
          "internalType": "uint256",
          "name": "deadline",
          "type": "uint256"
        }
      ],
      "name": "swapExactETHForTokens",
      "outputs": [
        {
          "internalType": "uint256[]",
          "name": "amounts",
          "type": "uint256[]"
        }
      ],
      "stateMutability": "payable",
      "type": "function"
    },
    {
      "inputs": [
        {
          "internalType": "uint256",
          "name": "amountOutMin",
          "type": "uint256"
        },
        {
          "internalType": "address[]",
          "name": "path",
          "type": "address[]"
        },
        {
          "internalType": "address",
          "name": "to",
          "type": "address"
        },
        {
          "internalType": "uint256",
          "name": "deadline",
          "type": "uint256"
        }
      ],
      "name": "swapExactETHForTokensSupportingFeeOnTransferTokens",
      "outputs": [],
      "stateMutability": "payable",
      "type": "function"
    },
    {
      "inputs": [
        {
          "internalType": "uint256",
          "name": "amountIn",
          "type": "uint256"
        },
        {
          "internalType": "uint256",
          "name": "amountOutMin",
          "type": "uint256"
        },
        {
          "internalType": "address[]",
          "name": "path",
          "type": "address[]"
        },
        {
          "internalType": "address",
          "name": "to",
          "type": "address"
        },
        {
          "internalType": "uint256",
          "name": "deadline",
          "type": "uint256"
        }
      ],
      "name": "swapExactTokensForETH",
      "outputs": [
        {
          "internalType": "uint256[]",
          "name": "amounts",
          "type": "uint256[]"
        }
      ],
      "stateMutability": "nonpayable",
      "type": "function"
    },
    {
      "inputs": [
        {
          "internalType": "uint256",
          "name": "amountIn",
          "type": "uint256"
        },
        {
          "internalType": "uint256",
          "name": "amountOutMin",
          "type": "uint256"
        },
        {
          "internalType": "address[]",
          "name": "path",
          "type": "address[]"
        },
        {
          "internalType": "address",
          "name": "to",
          "type": "address"
        },
        {
          "internalType": "uint256",
          "name": "deadline",
          "type": "uint256"
        }
      ],
      "name": "swapExactTokensForETHSupportingFeeOnTransferTokens",
      "outputs": [],
      "stateMutability": "nonpayable",
      "type": "function"
    },
    {
      "inputs": [
        {
          "internalType": "uint256",
          "name": "amountIn",
          "type": "uint256"
        },
        {
          "internalType": "uint256",
          "name": "amountOutMin",
          "type": "uint256"
        },
        {
          "internalType": "address[]",
          "name": "path",
          "type": "address[]"
        },
        {
          "internalType": "address",
          "name": "to",
          "type": "address"
        },
        {
          "internalType": "uint256",
          "name": "deadline",
          "type": "uint256"
        }
      ],
      "name": "swapExactTokensForTokens",
      "outputs": [
        {
          "internalType": "uint256[]",
          "name": "amounts",
          "type": "uint256[]"
        }
      ],
      "stateMutability": "nonpayable",
      "type": "function"
    },
    {
      "inputs": [
        {
          "internalType": "uint256",
          "name": "amountIn",
          "type": "uint256"
        },
        {
          "internalType": "uint256",
          "name": "amountOutMin",
          "type": "uint256"
        },
        {
          "internalType": "address[]",
          "name": "path",
          "type": "address[]"
        },
        {
          "internalType": "address",
          "name": "to",
          "type": "address"
        },
        {
          "internalType": "uint256",
          "name": "deadline",
          "type": "uint256"
        }
      ],
      "name": "swapExactTokensForTokensSupportingFeeOnTransferTokens",
      "outputs": [],
      "stateMutability": "nonpayable",
      "type": "function"
    },
    {
      "inputs": [
        {
          "internalType": "uint256",
          "name": "amountOut",
          "type": "uint256"
        },
        {
          "internalType": "uint256",
          "name": "amountInMax",
          "type": "uint256"
        },
        {
          "internalType": "address[]",
          "name": "path",
          "type": "address[]"
        },
        {
          "internalType": "address",
          "name": "to",
          "type": "address"
        },
        {
          "internalType": "uint256",
          "name": "deadline",
          "type": "uint256"
        }
      ],
      "name": "swapTokensForExactETH",
      "outputs": [
        {
          "internalType": "uint256[]",
          "name": "amounts",
          "type": "uint256[]"
        }
      ],
      "stateMutability": "nonpayable",
      "type": "function"
    },
    {
      "inputs": [
        {
          "internalType": "uint256",
          "name": "amountOut",
          "type": "uint256"
        },
        {
          "internalType": "uint256",
          "name": "amountInMax",
          "type": "uint256"
        },
        {
          "internalType": "address[]",
          "name": "path",
          "type": "address[]"
        },
        {
          "internalType": "address",
          "name": "to",
          "type": "address"
        },
        {
          "internalType": "uint256",
          "name": "deadline",
          "type": "uint256"
        }
      ],
      "name": "swapTokensForExactTokens",
      "outputs": [
        {
          "internalType": "uint256[]",
          "name": "amounts",
          "type": "uint256[]"
        }
      ],
      "stateMutability": "nonpayable",
      "type": "function"
    },
    {
      "stateMutability": "payable",
      "type": "receive"
    }
  ],
  "transactionHash": "0x887d3a1757d921d12349dc7f13aabb5ff2b21be4180a36e84cc865aa192e9dfc",
  "args": [
    "0x58efa15b89781ec6976a829b9f6e45623ad68429",
    "0xc778417e063141139fce010982780140aa0cd5ab"
  ],
  "numDeployments": 11,
  "solcInputHash": "352783a1787f7ed81ad24e571978741b",
  "bytecode": "0x60c06040523480156200001157600080fd5b5060405162005ca838038062005ca8833981810160405260408110156200003757600080fd5b5080516020909101516001600160601b0319606092831b8116608052911b1660a05260805160601c60a05160601c615aef620001b9600039806101cb5280610f435280610f7e52806112ce528061150752806118d75280611cd35280611fe7528061210c52806121c252806122a25280612402528061248a5280612708528061279552806127d852806128c1528061296852806129dc528061309752806133e7528061354452806135cc5280614ef15280614f475280614f7b5280614fef52508061109052806111365280611370528061144d52806115ce5280611606528061176e52806119795280611a315280611adb5280611cb15280611e4c528061234952806124bc52806126525280612a0e5280612bb55280612ddf5280612e6c5280612f1252806130455280613075528061320d528061348e52806135fe528061373e52806137e8528061405452806140fe528061438252806143c5528061498c5280614ac65280614f255280615190528061525752806152d75250615aef6000f3fe6080604052600436106101bb5760003560e01c80638803dbee116100ec578063cff314541161008a578063e8e3370011610064578063e8e3370014610cdf578063f23a6e6114610d41578063f305d71914610e18578063fb3bdb4114610e5e576101f4565b8063cff3145414610b67578063d06ca61f14610bb5578063ded9382a14610c6c576101f4565b8063af2979eb116100c6578063af2979eb14610a1c578063b6f9de9514610a6f578063baa2abde14610af5578063c45a015514610b52576101f4565b80638803dbee1461091d578063ad5c4648146109b5578063ad615dec146109e6576101f4565b80634a25d94a116101595780635c11d795116101335780635c11d79514610731578063791ac947146107c95780637ff36ab51461086157806385f8c259146108e7576101f4565b80634a25d94a146105eb5780634a7fe24e146106835780635b0d5984146106be576101f4565b806318cbafe51161019557806318cbafe5146103365780631f00ca741461041e5780632195995c146104d557806338ed173914610553576101f4565b806302751cec146101f9578063054d50d41461026557806310ef75f7146102ad576101f4565b366101f457336001600160a01b037f000000000000000000000000000000000000000000000000000000000000000016146101f257fe5b005b600080fd5b34801561020557600080fd5b5061024c600480360360c081101561021c57600080fd5b506001600160a01b0381358116916020810135916040820135916060810135916080820135169060a00135610ee4565b6040805192835260208301919091528051918290030190f35b34801561027157600080fd5b5061029b6004803603606081101561028857600080fd5b5080359060208101359060400135611010565b60408051918252519081900360200190f35b3480156102b957600080fd5b5061031860048036036101208110156102d157600080fd5b506001600160a01b038135811691602081013591604082013581169160608101359160808201359160a08101359160c08201359160e0810135909116906101000135611025565b60408051938452602084019290925282820152519081900360600190f35b34801561034257600080fd5b506103ce600480360360a081101561035957600080fd5b81359160208101359181019060608101604082013564010000000081111561038057600080fd5b82018360208201111561039257600080fd5b803590602001918460208302840111640100000000831117156103b457600080fd5b91935091506001600160a01b03813516906020013561126c565b60408051602080825283518183015283519192839290830191858101910280838360005b8381101561040a5781810151838201526020016103f2565b505050509050019250505060405180910390f35b34801561042a57600080fd5b506103ce6004803603604081101561044157600080fd5b8135919081019060408101602082013564010000000081111561046357600080fd5b82018360208201111561047557600080fd5b8035906020019184602083028401116401000000008311171561049757600080fd5b9190808060200260200160405190810160405280939291908181526020018383602002808284376000920191909152509295506115c7945050505050565b3480156104e157600080fd5b5061024c60048036036101608110156104f957600080fd5b506001600160a01b038135811691602081013582169160408201359160608101359160808201359160a08101359091169060c08101359060e081013515159060ff61010082013516906101208101359061014001356115fc565b34801561055f57600080fd5b506103ce600480360360a081101561057657600080fd5b81359160208101359181019060608101604082013564010000000081111561059d57600080fd5b8201836020820111156105af57600080fd5b803590602001918460208302840111640100000000831117156105d157600080fd5b91935091506001600160a01b03813516906020013561170f565b3480156105f757600080fd5b506103ce600480360360a081101561060e57600080fd5b81359160208101359181019060608101604082013564010000000081111561063557600080fd5b82018360208201111561064757600080fd5b8035906020019184602083028401116401000000008311171561066957600080fd5b91935091506001600160a01b038135169060200135611875565b34801561068f57600080fd5b5061029b600480360360408110156106a657600080fd5b506001600160a01b0381358116916020013516611a2d565b3480156106ca57600080fd5b5061029b60048036036101408110156106e257600080fd5b506001600160a01b0381358116916020810135916040820135916060810135916080820135169060a08101359060c081013515159060ff60e08201351690610100810135906101200135611ca9565b34801561073d57600080fd5b506101f2600480360360a081101561075457600080fd5b81359160208101359181019060608101604082013564010000000081111561077b57600080fd5b82018360208201111561078d57600080fd5b803590602001918460208302840111640100000000831117156107af57600080fd5b91935091506001600160a01b038135169060200135611dd0565b3480156107d557600080fd5b506101f2600480360360a08110156107ec57600080fd5b81359160208101359181019060608101604082013564010000000081111561081357600080fd5b82018360208201111561082557600080fd5b8035906020019184602083028401116401000000008311171561084757600080fd5b91935091506001600160a01b038135169060200135611f87565b6103ce6004803603608081101561087757600080fd5b8135919081019060408101602082013564010000000081111561089957600080fd5b8201836020820111156108ab57600080fd5b803590602001918460208302840111640100000000831117156108cd57600080fd5b91935091506001600160a01b038135169060200135612248565b3480156108f357600080fd5b5061029b6004803603606081101561090a57600080fd5b50803590602081013590604001356125e6565b34801561092957600080fd5b506103ce600480360360a081101561094057600080fd5b81359160208101359181019060608101604082013564010000000081111561096757600080fd5b82018360208201111561097957600080fd5b8035906020019184602083028401116401000000008311171561099b57600080fd5b91935091506001600160a01b0381351690602001356125f3565b3480156109c157600080fd5b506109ca612706565b604080516001600160a01b039092168252519081900360200190f35b3480156109f257600080fd5b5061029b60048036036060811015610a0957600080fd5b508035906020810135906040013561272a565b348015610a2857600080fd5b5061029b600480360360c0811015610a3f57600080fd5b506001600160a01b0381358116916020810135916040820135916060810135916080820135169060a00135612737565b6101f260048036036080811015610a8557600080fd5b81359190810190604081016020820135640100000000811115610aa757600080fd5b820183602082011115610ab957600080fd5b80359060200191846020830284011164010000000083111715610adb57600080fd5b91935091506001600160a01b038135169060200135612869565b348015610b0157600080fd5b5061024c600480360360e0811015610b1857600080fd5b506001600160a01b038135811691602081013582169160408201359160608101359160808201359160a08101359091169060c00135612b55565b348015610b5e57600080fd5b506109ca612ddd565b610318600480360360e0811015610b7d57600080fd5b506001600160a01b03813581169160208101359160408201359160608101359160808201359160a08101359091169060c00135612e01565b348015610bc157600080fd5b506103ce60048036036040811015610bd857600080fd5b81359190810190604081016020820135640100000000811115610bfa57600080fd5b820183602082011115610c0c57600080fd5b80359060200191846020830284011164010000000083111715610c2e57600080fd5b91908080602002602001604051908101604052809392919081815260200183836020028082843760009201919091525092955061303e945050505050565b348015610c7857600080fd5b5061024c6004803603610140811015610c9057600080fd5b506001600160a01b0381358116916020810135916040820135916060810135916080820135169060a08101359060c081013515159060ff60e0820135169061010081013590610120013561306b565b348015610ceb57600080fd5b506103186004803603610100811015610d0357600080fd5b506001600160a01b038135811691602081013582169160408201359160608101359160808201359160a08101359160c0820135169060e00135613198565b348015610d4d57600080fd5b50610de3600480360360a0811015610d6457600080fd5b6001600160a01b03823581169260208101359091169160408201359160608101359181019060a081016080820135640100000000811115610da457600080fd5b820183602082011115610db657600080fd5b80359060200191846001830284011164010000000083111715610dd857600080fd5b5090925090506132e6565b604080517fffffffff000000000000000000000000000000000000000000000000000000009092168252519081900360200190f35b610318600480360360c0811015610e2e57600080fd5b506001600160a01b0381358116916020810135916040820135916060810135916080820135169060a00135613311565b6103ce60048036036080811015610e7457600080fd5b81359190810190604081016020820135640100000000811115610e9657600080fd5b820183602082011115610ea857600080fd5b80359060200191846020830284011164010000000083111715610eca57600080fd5b91935091506001600160a01b03813516906020013561338d565b6000808242811015610f3d576040805162461bcd60e51b815260206004820152601860248201527f556e69737761705632526f757465723a20455850495245440000000000000000604482015290519081900360640190fd5b610f6c897f00000000000000000000000000000000000000000000000000000000000000008a8a8a308a612b55565b9093509150610f7c89868561373c565b7f00000000000000000000000000000000000000000000000000000000000000006001600160a01b0316632e1a7d4d836040518263ffffffff1660e01b815260040180828152602001915050600060405180830381600087803b158015610fe257600080fd5b505af1158015610ff6573d6000803e3d6000fd5b5050505061100485836139b8565b50965096945050505050565b600061101d848484613ac9565b949350505050565b60008060008342811015611080576040805162461bcd60e51b815260206004820152601860248201527f556e69737761705632526f757465723a20455850495245440000000000000000604482015290519081900360640190fd5b600061108c8e8e613bb9565b90507f00000000000000000000000000000000000000000000000000000000000000006001600160a01b031663d980e85c826040518263ffffffff1660e01b815260040180826001600160a01b03166001600160a01b0316815260200191505060206040518083038186803b15801561110457600080fd5b505afa158015611118573d6000803e3d6000fd5b505050506040513d602081101561112e57600080fd5b505161123f577f00000000000000000000000000000000000000000000000000000000000000006001600160a01b0316636d705ebb8f8f6040518363ffffffff1660e01b815260040180836001600160a01b03166001600160a01b0316815260200182815260200192505050602060405180830381600087803b1580156111b457600080fd5b505af11580156111c8573d6000803e3d6000fd5b505050506040513d60208110156111de57600080fd5b50516001600160a01b0382811691161461123f576040805162461bcd60e51b815260206004820152601160248201527f4d6973736d617463682061646472657373000000000000000000000000000000604482015290519081900360640190fd5b61124f818d8d8d8d8d8d8d613198565b809550819650829750505050505099509950999650505050505050565b606081428110156112c4576040805162461bcd60e51b815260206004820152601860248201527f556e69737761705632526f757465723a20455850495245440000000000000000604482015290519081900360640190fd5b6001600160a01b037f000000000000000000000000000000000000000000000000000000000000000016868660001981018181106112fe57fe5b905060200201356001600160a01b03166001600160a01b031614611369576040805162461bcd60e51b815260206004820152601d60248201527f556e69737761705632526f757465723a20494e56414c49445f50415448000000604482015290519081900360640190fd5b60606113c97f00000000000000000000000000000000000000000000000000000000000000008a898980806020026020016040519081016040528093929190818152602001838360200280828437600092019190915250613c1092505050565b815191945091508890849060001981019081106113e257fe5b602002602001015110156114275760405162461bcd60e51b815260040180806020018281038252602b815260200180615a37602b913960400191505060405180910390fd5b6114c58787600081811061143757fe5b905060200201356001600160a01b0316336114ab7f00000000000000000000000000000000000000000000000000000000000000008b8b600081811061147957fe5b905060200201356001600160a01b03168c8c600181811061149657fe5b905060200201356001600160a01b0316613f67565b866000815181106114b857fe5b6020026020010151614052565b61150583828989808060200260200160405190810160405280939291908181526020018383602002808284376000920191909152503092506142d3915050565b7f00000000000000000000000000000000000000000000000000000000000000006001600160a01b0316632e1a7d4d8460018651038151811061154457fe5b60200260200101516040518263ffffffff1660e01b815260040180828152602001915050600060405180830381600087803b15801561158257600080fd5b505af1158015611596573d6000803e3d6000fd5b505050506115bb85846001865103815181106115ae57fe5b60200260200101516139b8565b50509695505050505050565b60606115f47f00000000000000000000000000000000000000000000000000000000000000008484614554565b509392505050565b600080600061162c7f00000000000000000000000000000000000000000000000000000000000000008f8f613f67565b905060008761163b578c61163f565b6000195b604080517fd505accf00000000000000000000000000000000000000000000000000000000815233600482015230602482015260448101839052606481018c905260ff8a16608482015260a4810189905260c4810188905290519192506001600160a01b0384169163d505accf9160e48082019260009290919082900301818387803b1580156116ce57600080fd5b505af11580156116e2573d6000803e3d6000fd5b505050506116f58f8f8f8f8f8f8f612b55565b809450819550505050509b509b9950505050505050505050565b60608142811015611767576040805162461bcd60e51b815260206004820152601860248201527f556e69737761705632526f757465723a20455850495245440000000000000000604482015290519081900360640190fd5b60606117c77f00000000000000000000000000000000000000000000000000000000000000008a898980806020026020016040519081016040528093929190818152602001838360200280828437600092019190915250613c1092505050565b815191945091508890849060001981019081106117e057fe5b602002602001015110156118255760405162461bcd60e51b815260040180806020018281038252602b815260200180615a37602b913960400191505060405180910390fd5b6118358787600081811061143757fe5b6115bb83828989808060200260200160405190810160405280939291908181526020018383602002808284376000920191909152508b92506142d3915050565b606081428110156118cd576040805162461bcd60e51b815260206004820152601860248201527f556e69737761705632526f757465723a20455850495245440000000000000000604482015290519081900360640190fd5b6001600160a01b037f0000000000000000000000000000000000000000000000000000000000000000168686600019810181811061190757fe5b905060200201356001600160a01b03166001600160a01b031614611972576040805162461bcd60e51b815260206004820152601d60248201527f556e69737761705632526f757465723a20494e56414c49445f50415448000000604482015290519081900360640190fd5b60606119d27f00000000000000000000000000000000000000000000000000000000000000008a89898080602002602001604051908101604052809392919081815260200183836020028082843760009201919091525061455492505050565b809250819450505087836000815181106119e857fe5b602002602001015111156114275760405162461bcd60e51b81526004018080602001828103825260278152602001806159ea6027913960400191505060405180910390fd5b60007f00000000000000000000000000000000000000000000000000000000000000006001600160a01b031663d980e85c846040518263ffffffff1660e01b815260040180826001600160a01b03166001600160a01b0316815260200191505060206040518083038186803b158015611aa557600080fd5b505afa158015611ab9573d6000803e3d6000fd5b505050506040513d6020811015611acf57600080fd5b505115611c1e576000807f00000000000000000000000000000000000000000000000000000000000000006001600160a01b031663879b20b9866040518263ffffffff1660e01b815260040180826001600160a01b03166001600160a01b03168152602001915050604080518083038186803b158015611b4e57600080fd5b505afa158015611b62573d6000803e3d6000fd5b505050506040513d6040811015611b7857600080fd5b508051602091820151604080517efdd58e0000000000000000000000000000000000000000000000000000000081526001600160a01b03898116600483015260248201849052915193965091945085169262fdd58e92604480840193829003018186803b158015611be857600080fd5b505afa158015611bfc573d6000803e3d6000fd5b505050506040513d6020811015611c1257600080fd5b50519250611ca3915050565b826001600160a01b03166370a08231836040518263ffffffff1660e01b815260040180826001600160a01b03166001600160a01b0316815260200191505060206040518083038186803b158015611c7457600080fd5b505afa158015611c88573d6000803e3d6000fd5b505050506040513d6020811015611c9e57600080fd5b505190505b92915050565b600080611cf77f00000000000000000000000000000000000000000000000000000000000000008d7f0000000000000000000000000000000000000000000000000000000000000000613f67565b9050600086611d06578b611d0a565b6000195b604080517fd505accf00000000000000000000000000000000000000000000000000000000815233600482015230602482015260448101839052606481018b905260ff8916608482015260a4810188905260c4810187905290519192506001600160a01b0384169163d505accf9160e48082019260009290919082900301818387803b158015611d9957600080fd5b505af1158015611dad573d6000803e3d6000fd5b50505050611dbf8d8d8d8d8d8d612737565b9d9c50505050505050505050505050565b8042811015611e26576040805162461bcd60e51b815260206004820152601860248201527f556e69737761705632526f757465723a20455850495245440000000000000000604482015290519081900360640190fd5b611e9b85856000818110611e3657fe5b905060200201356001600160a01b031633611e957f000000000000000000000000000000000000000000000000000000000000000089896000818110611e7857fe5b905060200201356001600160a01b03168a8a600181811061149657fe5b8a614052565b6000611ec686866000198101818110611eb057fe5b905060200201356001600160a01b031685611a2d565b9050611f06868680806020026020016040519081016040528093929190818152602001838360200280828437600092019190915250889250614935915050565b86611f4082611f3489896000198101818110611f1e57fe5b905060200201356001600160a01b031688611a2d565b9063ffffffff614c1416565b1015611f7d5760405162461bcd60e51b815260040180806020018281038252602b815260200180615a37602b913960400191505060405180910390fd5b5050505050505050565b8042811015611fdd576040805162461bcd60e51b815260206004820152601860248201527f556e69737761705632526f757465723a20455850495245440000000000000000604482015290519081900360640190fd5b6001600160a01b037f0000000000000000000000000000000000000000000000000000000000000000168585600019810181811061201757fe5b905060200201356001600160a01b03166001600160a01b031614612082576040805162461bcd60e51b815260206004820152601d60248201527f556e69737761705632526f757465723a20494e56414c49445f50415448000000604482015290519081900360640190fd5b61209285856000818110611e3657fe5b6120d0858580806020026020016040519081016040528093929190818152602001838360200280828437600092019190915250309250614935915050565b604080517f70a0823100000000000000000000000000000000000000000000000000000000815230600482015290516000916001600160a01b037f000000000000000000000000000000000000000000000000000000000000000016916370a0823191602480820192602092909190829003018186803b15801561215357600080fd5b505afa158015612167573d6000803e3d6000fd5b505050506040513d602081101561217d57600080fd5b50519050868110156121c05760405162461bcd60e51b815260040180806020018281038252602b815260200180615a37602b913960400191505060405180910390fd5b7f00000000000000000000000000000000000000000000000000000000000000006001600160a01b0316632e1a7d4d826040518263ffffffff1660e01b815260040180828152602001915050600060405180830381600087803b15801561222657600080fd5b505af115801561223a573d6000803e3d6000fd5b50505050611f7d84826139b8565b606081428110156122a0576040805162461bcd60e51b815260206004820152601860248201527f556e69737761705632526f757465723a20455850495245440000000000000000604482015290519081900360640190fd5b7f00000000000000000000000000000000000000000000000000000000000000006001600160a01b0316868660008181106122d757fe5b905060200201356001600160a01b03166001600160a01b031614612342576040805162461bcd60e51b815260206004820152601d60248201527f556e69737761705632526f757465723a20494e56414c49445f50415448000000604482015290519081900360640190fd5b60606123a27f000000000000000000000000000000000000000000000000000000000000000034898980806020026020016040519081016040528093929190818152602001838360200280828437600092019190915250613c1092505050565b815191945091508890849060001981019081106123bb57fe5b602002602001015110156124005760405162461bcd60e51b815260040180806020018281038252602b815260200180615a37602b913960400191505060405180910390fd5b7f00000000000000000000000000000000000000000000000000000000000000006001600160a01b031663d0e30db08460008151811061243c57fe5b60200260200101516040518263ffffffff1660e01b81526004016000604051808303818588803b15801561246f57600080fd5b505af1158015612483573d6000803e3d6000fd5b50505050507f00000000000000000000000000000000000000000000000000000000000000006001600160a01b031663a9059cbb6125057f00000000000000000000000000000000000000000000000000000000000000008a8a60008181106124e857fe5b905060200201356001600160a01b03168b8b600181811061149657fe5b8560008151811061251257fe5b60200260200101516040518363ffffffff1660e01b815260040180836001600160a01b03166001600160a01b0316815260200182815260200192505050602060405180830381600087803b15801561256957600080fd5b505af115801561257d573d6000803e3d6000fd5b505050506040513d602081101561259357600080fd5b505161259b57fe5b6125db83828989808060200260200160405190810160405280939291908181526020018383602002808284376000920191909152508b92506142d3915050565b505095945050505050565b600061101d848484614c6c565b6060814281101561264b576040805162461bcd60e51b815260206004820152601860248201527f556e69737761705632526f757465723a20455850495245440000000000000000604482015290519081900360640190fd5b60606126ab7f00000000000000000000000000000000000000000000000000000000000000008a89898080602002602001604051908101604052809392919081815260200183836020028082843760009201919091525061455492505050565b809250819450505087836000815181106126c157fe5b602002602001015111156118255760405162461bcd60e51b81526004018080602001828103825260278152602001806159ea6027913960400191505060405180910390fd5b7f000000000000000000000000000000000000000000000000000000000000000081565b600061101d848484614d5c565b6000814281101561278f576040805162461bcd60e51b815260206004820152601860248201527f556e69737761705632526f757465723a20455850495245440000000000000000604482015290519081900360640190fd5b6127be887f00000000000000000000000000000000000000000000000000000000000000008989893089612b55565b92506127d6905088856127d18230611a2d565b61373c565b7f00000000000000000000000000000000000000000000000000000000000000006001600160a01b0316632e1a7d4d836040518263ffffffff1660e01b815260040180828152602001915050600060405180830381600087803b15801561283c57600080fd5b505af1158015612850573d6000803e3d6000fd5b5050505061285e84836139b8565b509695505050505050565b80428110156128bf576040805162461bcd60e51b815260206004820152601860248201527f556e69737761705632526f757465723a20455850495245440000000000000000604482015290519081900360640190fd5b7f00000000000000000000000000000000000000000000000000000000000000006001600160a01b0316858560008181106128f657fe5b905060200201356001600160a01b03166001600160a01b031614612961576040805162461bcd60e51b815260206004820152601d60248201527f556e69737761705632526f757465723a20494e56414c49445f50415448000000604482015290519081900360640190fd5b60003490507f00000000000000000000000000000000000000000000000000000000000000006001600160a01b031663d0e30db0826040518263ffffffff1660e01b81526004016000604051808303818588803b1580156129c157600080fd5b505af11580156129d5573d6000803e3d6000fd5b50505050507f00000000000000000000000000000000000000000000000000000000000000006001600160a01b031663a9059cbb612a3a7f000000000000000000000000000000000000000000000000000000000000000089896000818110611e7857fe5b836040518363ffffffff1660e01b815260040180836001600160a01b03166001600160a01b0316815260200182815260200192505050602060405180830381600087803b158015612a8a57600080fd5b505af1158015612a9e573d6000803e3d6000fd5b505050506040513d6020811015612ab457600080fd5b5051612abc57fe5b6000612ae787876000198101818110612ad157fe5b905060200201356001600160a01b031686611a2d565b9050612b27878780806020026020016040519081016040528093929190818152602001838360200280828437600092019190915250899250614935915050565b87611f4082611f348a8a6000198101818110612b3f57fe5b905060200201356001600160a01b031689611a2d565b6000808242811015612bae576040805162461bcd60e51b815260206004820152601860248201527f556e69737761705632526f757465723a20455850495245440000000000000000604482015290519081900360640190fd5b6000612bdb7f00000000000000000000000000000000000000000000000000000000000000008c8c613f67565b604080517f23b872dd0000000000000000000000000000000000000000000000000000000081523360048201526001600160a01b03831660248201819052604482018d9052915192935090916323b872dd916064808201926020929091908290030181600087803b158015612c4f57600080fd5b505af1158015612c63573d6000803e3d6000fd5b505050506040513d6020811015612c7957600080fd5b5050604080517f89afcb440000000000000000000000000000000000000000000000000000000081526001600160a01b03888116600483015282516000938493928616926389afcb44926024808301939282900301818787803b158015612cdf57600080fd5b505af1158015612cf3573d6000803e3d6000fd5b505050506040513d6040811015612d0957600080fd5b50805160209091015190925090506000612d238e8e614e08565b509050806001600160a01b03168e6001600160a01b031614612d46578183612d49565b82825b90975095508a871015612d8d5760405162461bcd60e51b8152600401808060200182810382526026815260200180615a116026913960400191505060405180910390fd5b89861015612dcc5760405162461bcd60e51b81526004018080602001828103825260268152602001806159776026913960400191505060405180910390fd5b505050505097509795505050505050565b7f000000000000000000000000000000000000000000000000000000000000000081565b60008060008342811015612e5c576040805162461bcd60e51b815260206004820152601860248201527f556e69737761705632526f757465723a20455850495245440000000000000000604482015290519081900360640190fd5b6000612e688c8c613bb9565b90507f00000000000000000000000000000000000000000000000000000000000000006001600160a01b031663d980e85c826040518263ffffffff1660e01b815260040180826001600160a01b03166001600160a01b0316815260200191505060206040518083038186803b158015612ee057600080fd5b505afa158015612ef4573d6000803e3d6000fd5b505050506040513d6020811015612f0a57600080fd5b505161301b577f00000000000000000000000000000000000000000000000000000000000000006001600160a01b0316636d705ebb8d8d6040518363ffffffff1660e01b815260040180836001600160a01b03166001600160a01b0316815260200182815260200192505050602060405180830381600087803b158015612f9057600080fd5b505af1158015612fa4573d6000803e3d6000fd5b505050506040513d6020811015612fba57600080fd5b50516001600160a01b0382811691161461301b576040805162461bcd60e51b815260206004820152601160248201527f4d6973736d617463682061646472657373000000000000000000000000000000604482015290519081900360640190fd5b613029818b348c8c8c614ee6565b919e909d50909b509950505050505050505050565b60606115f47f00000000000000000000000000000000000000000000000000000000000000008484613c10565b60008060006130bb7f00000000000000000000000000000000000000000000000000000000000000008e7f0000000000000000000000000000000000000000000000000000000000000000613f67565b90506000876130ca578c6130ce565b6000195b604080517fd505accf00000000000000000000000000000000000000000000000000000000815233600482015230602482015260448101839052606481018c905260ff8a16608482015260a4810189905260c4810188905290519192506001600160a01b0384169163d505accf9160e48082019260009290919082900301818387803b15801561315d57600080fd5b505af1158015613171573d6000803e3d6000fd5b505050506131838e8e8e8e8e8e610ee4565b909f909e509c50505050505050505050505050565b600080600083428110156131f3576040805162461bcd60e51b815260206004820152601860248201527f556e69737761705632526f757465723a20455850495245440000000000000000604482015290519081900360640190fd5b6132018c8c8c8c8c8c615146565b909450925060006132337f00000000000000000000000000000000000000000000000000000000000000008e8e613f67565b90506132418d338388614052565b61324d8c338387614052565b806001600160a01b0316636a627842886040518263ffffffff1660e01b815260040180826001600160a01b03166001600160a01b03168152602001915050602060405180830381600087803b1580156132a557600080fd5b505af11580156132b9573d6000803e3d6000fd5b505050506040513d60208110156132cf57600080fd5b5051949d939c50939a509198505050505050505050565b7ff23a6e61000000000000000000000000000000000000000000000000000000009695505050505050565b6000806000834281101561336c576040805162461bcd60e51b815260206004820152601860248201527f556e69737761705632526f757465723a20455850495245440000000000000000604482015290519081900360640190fd5b61337a8a8a348b8b8b614ee6565b919c909b50909950975050505050505050565b606081428110156133e5576040805162461bcd60e51b815260206004820152601860248201527f556e69737761705632526f757465723a20455850495245440000000000000000604482015290519081900360640190fd5b7f00000000000000000000000000000000000000000000000000000000000000006001600160a01b03168686600081811061341c57fe5b905060200201356001600160a01b03166001600160a01b031614613487576040805162461bcd60e51b815260206004820152601d60248201527f556e69737761705632526f757465723a20494e56414c49445f50415448000000604482015290519081900360640190fd5b60606134e77f00000000000000000000000000000000000000000000000000000000000000008989898080602002602001604051908101604052809392919081815260200183836020028082843760009201919091525061455492505050565b809250819450505034836000815181106134fd57fe5b602002602001015111156135425760405162461bcd60e51b81526004018080602001828103825260278152602001806159ea6027913960400191505060405180910390fd5b7f00000000000000000000000000000000000000000000000000000000000000006001600160a01b031663d0e30db08460008151811061357e57fe5b60200260200101516040518263ffffffff1660e01b81526004016000604051808303818588803b1580156135b157600080fd5b505af11580156135c5573d6000803e3d6000fd5b50505050507f00000000000000000000000000000000000000000000000000000000000000006001600160a01b031663a9059cbb61362a7f00000000000000000000000000000000000000000000000000000000000000008a8a60008181106124e857fe5b8560008151811061363757fe5b60200260200101516040518363ffffffff1660e01b815260040180836001600160a01b03166001600160a01b0316815260200182815260200192505050602060405180830381600087803b15801561368e57600080fd5b505af11580156136a2573d6000803e3d6000fd5b505050506040513d60208110156136b857600080fd5b50516136c057fe5b61370083828989808060200260200160405190810160405280939291908181526020018383602002808284376000920191909152508b92506142d3915050565b8260008151811061370d57fe5b60200260200101513411156125db576125db338460008151811061372d57fe5b602002602001015134036139b8565b7f00000000000000000000000000000000000000000000000000000000000000006001600160a01b031663d980e85c846040518263ffffffff1660e01b815260040180826001600160a01b03166001600160a01b0316815260200191505060206040518083038186803b1580156137b257600080fd5b505afa1580156137c6573d6000803e3d6000fd5b505050506040513d60208110156137dc57600080fd5b5051156139a8576000807f00000000000000000000000000000000000000000000000000000000000000006001600160a01b031663879b20b9866040518263ffffffff1660e01b815260040180826001600160a01b03166001600160a01b03168152602001915050604080518083038186803b15801561385b57600080fd5b505afa15801561386f573d6000803e3d6000fd5b505050506040513d604081101561388557600080fd5b508051602091820151604080516000808252948101918290527ff242432a00000000000000000000000000000000000000000000000000000000825230602482018181526001600160a01b038b8116604485015260648401869052608484018b905260a060a48501908152845160c48601819052979a5095985089169663f242432a9692958c958a958d9590949360e486019291908190849084905b83811015613939578181015183820152602001613921565b50505050905090810190601f1680156139665780820380516001836020036101000a031916815260200191505b509650505050505050600060405180830381600087803b15801561398957600080fd5b505af115801561399d573d6000803e3d6000fd5b5050505050506139b3565b6139b38383836153ec565b505050565b604080516000808252602082019092526001600160a01b0384169083906040518082805190602001908083835b60208310613a2257805182527fffffffffffffffffffffffffffffffffffffffffffffffffffffffffffffffe090920191602091820191016139e5565b6001836020036101000a03801982511681845116808217855250505050505090500191505060006040518083038185875af1925050503d8060008114613a84576040519150601f19603f3d011682016040523d82523d6000602084013e613a89565b606091505b50509050806139b35760405162461bcd60e51b815260040180806020018281038252603481526020018061591e6034913960400191505060405180910390fd5b6000808411613b095760405162461bcd60e51b815260040180806020018281038252602b815260200180615a8f602b913960400191505060405180910390fd5b600083118015613b195750600082115b613b545760405162461bcd60e51b815260040180806020018281038252602881526020018061599d6028913960400191505060405180910390fd5b6000613b68856103e563ffffffff61558516565b90506000613b7c828563ffffffff61558516565b90506000613ba283613b96886103e863ffffffff61558516565b9063ffffffff6155f116565b9050808281613bad57fe5b04979650505050505050565b6040805160609390931b7fffffffffffffffffffffffffffffffffffffffff000000000000000000000000166020808501919091526034808501939093528151808503909301835260549093019052805191012090565b606080600283511015613c6a576040805162461bcd60e51b815260206004820152601e60248201527f556e697377617056324c6962726172793a20494e56414c49445f504154480000604482015290519081900360640190fd5b825167ffffffffffffffff81118015613c8257600080fd5b50604051908082528060200260200182016040528015613cac578160200160208202803683370190505b509050825167ffffffffffffffff81118015613cc757600080fd5b50604051908082528060200260200182016040528015613cf1578160200160208202803683370190505b5091508382600081518110613d0257fe5b60200260200101818152505060005b6001845103811015613f5e57600080613d5488878581518110613d3057fe5b6020026020010151888660010181518110613d4757fe5b6020026020010151615649565b91509150613d76858481518110613d6757fe5b60200260200101518383613ac9565b858460010181518110613d8557fe5b60209081029190910101528215801590613e315750876001600160a01b031663d980e85c878581518110613db557fe5b60200260200101516040518263ffffffff1660e01b815260040180826001600160a01b03166001600160a01b0316815260200191505060206040518083038186803b158015613e0357600080fd5b505afa158015613e17573d6000803e3d6000fd5b505050506040513d6020811015613e2d57600080fd5b5051155b8015613ed15750876001600160a01b031663d980e85c878560010181518110613e5657fe5b60200260200101516040518263ffffffff1660e01b815260040180826001600160a01b03166001600160a01b0316815260200191505060206040518083038186803b158015613ea457600080fd5b505afa158015613eb8573d6000803e3d6000fd5b505050506040513d6020811015613ece57600080fd5b50515b15613f54576000613ef9868560010181518110613eea57fe5b60200260200101518484614c6c565b9050613f2181878681518110613f0b57fe5b6020026020010151614c1490919063ffffffff16565b858581518110613f2d57fe5b60200260200101818152505080868581518110613f4657fe5b602002602001018181525050505b5050600101613d11565b50935093915050565b6000806000613f768585614e08565b604080517fffffffffffffffffffffffffffffffffffffffff000000000000000000000000606094851b811660208084019190915293851b81166034830152825160288184030181526048830184528051908501207fff0000000000000000000000000000000000000000000000000000000000000060688401529a90941b9093166069840152607d8301989098527f419abd54eca263cfa3a929ec78f33149e6666220be682934d54d6166311a4ce7609d808401919091528851808403909101815260bd909201909752805196019590952095945050505050565b7f00000000000000000000000000000000000000000000000000000000000000006001600160a01b031663d980e85c856040518263ffffffff1660e01b815260040180826001600160a01b03166001600160a01b0316815260200191505060206040518083038186803b1580156140c857600080fd5b505afa1580156140dc573d6000803e3d6000fd5b505050506040513d60208110156140f257600080fd5b5051156142c1576000807f00000000000000000000000000000000000000000000000000000000000000006001600160a01b031663879b20b9876040518263ffffffff1660e01b815260040180826001600160a01b03166001600160a01b03168152602001915050604080518083038186803b15801561417157600080fd5b505afa158015614185573d6000803e3d6000fd5b505050506040513d604081101561419b57600080fd5b508051602091820151604080516000808252948101918290527ff242432a0000000000000000000000000000000000000000000000000000000082526001600160a01b038a8116602483019081528a8216604484015260648301859052608483018a905260a060a48401908152835160c485018190529699509497509088169563f242432a958c958c958a958d959094909360e4860192918190849084905b8381101561425257818101518382015260200161423a565b50505050905090810190601f16801561427f5780820380516001836020036101000a031916815260200191505b509650505050505050600060405180830381600087803b1580156142a257600080fd5b505af11580156142b6573d6000803e3d6000fd5b5050505050506142cd565b6142cd84848484615717565b50505050565b60005b600183510381101561454d576000808483815181106142f157fe5b602002602001015185846001018151811061430857fe5b60200260200101519150915060006143208383614e08565b509050600088856001018151811061433457fe5b60200260200101519050600080836001600160a01b0316866001600160a01b03161461436257826000614366565b6000835b91509150600060028a5103881061437d57886143be565b6143be7f0000000000000000000000000000000000000000000000000000000000000000878c8b600201815181106143b157fe5b6020026020010151613f67565b90506143eb7f00000000000000000000000000000000000000000000000000000000000000008888613f67565b6001600160a01b031663022c0d9f84848460006040519080825280601f01601f191660200182016040528015614428576020820181803683370190505b506040518563ffffffff1660e01b815260040180858152602001848152602001836001600160a01b03166001600160a01b0316815260200180602001828103825283818151815260200191508051906020019080838360005b83811015614499578181015183820152602001614481565b50505050905090810190601f1680156144c65780820380516001836020036101000a031916815260200191505b5095505050505050600060405180830381600087803b1580156144e857600080fd5b505af11580156144fc573d6000803e3d6000fd5b5050505060008b898151811061450e57fe5b6020026020010151111561453a5761453a878a8d8b8151811061452d57fe5b602002602001015161373c565b5050600190950194506142d69350505050565b5050505050565b6060806002835110156145ae576040805162461bcd60e51b815260206004820152601e60248201527f556e697377617056324c6962726172793a20494e56414c49445f504154480000604482015290519081900360640190fd5b825167ffffffffffffffff811180156145c657600080fd5b506040519080825280602002602001820160405280156145f0578160200160208202803683370190505b509050825167ffffffffffffffff8111801561460b57600080fd5b50604051908082528060200260200182016040528015614635578160200160208202803683370190505b509150838260018451038151811061464957fe5b60209081029190910101528251600019015b8015613f5e5760008061468b8887600186038151811061467757fe5b6020026020010151888681518110613d4757fe5b915091506146ad85848151811061469e57fe5b60200260200101518383614c6c565b8560018503815181106146bc57fe5b6020026020010181815250506001855103831415801561476e5750876001600160a01b031663d980e85c8785815181106146f257fe5b60200260200101516040518263ffffffff1660e01b815260040180826001600160a01b03166001600160a01b0316815260200191505060206040518083038186803b15801561474057600080fd5b505afa158015614754573d6000803e3d6000fd5b505050506040513d602081101561476a57600080fd5b5051155b801561480e5750876001600160a01b031663d980e85c87600186038151811061479357fe5b60200260200101516040518263ffffffff1660e01b815260040180826001600160a01b03166001600160a01b0316815260200191505060206040518083038186803b1580156147e157600080fd5b505afa1580156147f5573d6000803e3d6000fd5b505050506040513d602081101561480b57600080fd5b50515b1561492a5784600184038151811061482257fe5b60200260200101516000141561485057600185600185038151811061484357fe5b6020026020010181815250505b600061487386600186038151811061486457fe5b60200260200101518484613ac9565b905085848151811061488157fe5b60200260200101518110156148ea576148ba60018760018703815181106148a457fe5b60200260200101516155f190919063ffffffff16565b8660018603815181106148c957fe5b6020026020010181815250506148e786600186038151811061486457fe5b90505b6149108685815181106148f957fe5b602002602001015182614c1490919063ffffffff16565b85858151811061491c57fe5b602002602001018181525050505b50506000190161465b565b60005b60018351038110156139b35760008084838151811061495357fe5b602002602001015185846001018151811061496a57fe5b60200260200101519150915060006149828383614e08565b50905060006149b27f00000000000000000000000000000000000000000000000000000000000000008585613f67565b9050600080600080846001600160a01b0316630902f1ac6040518163ffffffff1660e01b815260040160606040518083038186803b1580156149f357600080fd5b505afa158015614a07573d6000803e3d6000fd5b505050506040513d6060811015614a1d57600080fd5b5080516020909101516dffffffffffffffffffffffffffff91821693501690506000806001600160a01b038a811690891614614a5a578284614a5d565b83835b91509150614a6f82611f348c8a611a2d565b9550614a7c868383613ac9565b945050505050600080856001600160a01b0316886001600160a01b031614614aa657826000614aaa565b6000835b91509150600060028c51038a10614ac1578a614af5565b614af57f0000000000000000000000000000000000000000000000000000000000000000898e8d600201815181106143b157fe5b60408051600080825260208201928390527f022c0d9f00000000000000000000000000000000000000000000000000000000835260248201878152604483018790526001600160a01b038086166064850152608060848501908152845160a48601819052969750908c169563022c0d9f958a958a958a9591949193919260c486019290918190849084905b83811015614b98578181015183820152602001614b80565b50505050905090810190601f168015614bc55780820380516001836020036101000a031916815260200191505b5095505050505050600060405180830381600087803b158015614be757600080fd5b505af1158015614bfb573d6000803e3d6000fd5b50506001909b019a506149389950505050505050505050565b80820382811115611ca3576040805162461bcd60e51b815260206004820152601560248201527f64732d6d6174682d7375622d756e646572666c6f770000000000000000000000604482015290519081900360640190fd5b6000808411614cac5760405162461bcd60e51b815260040180806020018281038252602c8152602001806158c1602c913960400191505060405180910390fd5b600083118015614cbc5750600082115b614cf75760405162461bcd60e51b815260040180806020018281038252602881526020018061599d6028913960400191505060405180910390fd5b6000614d1b6103e8614d0f868863ffffffff61558516565b9063ffffffff61558516565b90506000614d356103e5614d0f868963ffffffff614c1416565b9050614d526001828481614d4557fe5b049063ffffffff6155f116565b9695505050505050565b6000808411614d9c5760405162461bcd60e51b81526004018080602001828103825260258152602001806159c56025913960400191505060405180910390fd5b600083118015614dac5750600082115b614de75760405162461bcd60e51b815260040180806020018281038252602881526020018061599d6028913960400191505060405180910390fd5b82614df8858463ffffffff61558516565b81614dff57fe5b04949350505050565b600080826001600160a01b0316846001600160a01b03161415614e5c5760405162461bcd60e51b81526004018080602001828103825260258152602001806159526025913960400191505060405180910390fd5b826001600160a01b0316846001600160a01b031610614e7c578284614e7f565b83835b90925090506001600160a01b038216614edf576040805162461bcd60e51b815260206004820152601e60248201527f556e697377617056324c6962726172793a205a45524f5f414444524553530000604482015290519081900360640190fd5b9250929050565b6000806000614f19897f00000000000000000000000000000000000000000000000000000000000000008a8a8a8a615146565b90935091506000614f6b7f00000000000000000000000000000000000000000000000000000000000000008b7f0000000000000000000000000000000000000000000000000000000000000000613f67565b9050614f798a338387614052565b7f00000000000000000000000000000000000000000000000000000000000000006001600160a01b031663d0e30db0846040518263ffffffff1660e01b81526004016000604051808303818588803b158015614fd457600080fd5b505af1158015614fe8573d6000803e3d6000fd5b50505050507f00000000000000000000000000000000000000000000000000000000000000006001600160a01b031663a9059cbb82856040518363ffffffff1660e01b815260040180836001600160a01b03166001600160a01b0316815260200182815260200192505050602060405180830381600087803b15801561506d57600080fd5b505af1158015615081573d6000803e3d6000fd5b505050506040513d602081101561509757600080fd5b505161509f57fe5b806001600160a01b0316636a627842866040518263ffffffff1660e01b815260040180826001600160a01b03166001600160a01b03168152602001915050602060405180830381600087803b1580156150f757600080fd5b505af115801561510b573d6000803e3d6000fd5b505050506040513d602081101561512157600080fd5b50519150828811156151395761513933848a036139b8565b5096509650969350505050565b604080517fe6a439050000000000000000000000000000000000000000000000000000000081526001600160a01b03888116600483015287811660248301529151600092839283927f00000000000000000000000000000000000000000000000000000000000000009092169163e6a4390591604480820192602092909190829003018186803b1580156151d957600080fd5b505afa1580156151ed573d6000803e3d6000fd5b505050506040513d602081101561520357600080fd5b50516001600160a01b031614156152cf57604080517fc9c653960000000000000000000000000000000000000000000000000000000081526001600160a01b038a81166004830152898116602483015291517f00000000000000000000000000000000000000000000000000000000000000009092169163c9c65396916044808201926020929091908290030181600087803b1580156152a257600080fd5b505af11580156152b6573d6000803e3d6000fd5b505050506040513d60208110156152cc57600080fd5b50505b6000806152fd7f00000000000000000000000000000000000000000000000000000000000000008b8b615649565b9150915081600014801561530f575080155b1561531f578793508692506153df565b600061532c898484614d5c565b905087811161537f57858110156153745760405162461bcd60e51b81526004018080602001828103825260268152602001806159776026913960400191505060405180910390fd5b8894509250826153dd565b600061538c898486614d5c565b90508981111561539857fe5b878110156153d75760405162461bcd60e51b8152600401808060200182810382526026815260200180615a116026913960400191505060405180910390fd5b94508793505b505b5050965096945050505050565b604080516001600160a01b038481166024830152604480830185905283518084039091018152606490920183526020820180517bffffffffffffffffffffffffffffffffffffffffffffffffffffffff167fa9059cbb00000000000000000000000000000000000000000000000000000000178152925182516000946060949389169392918291908083835b602083106154b557805182527fffffffffffffffffffffffffffffffffffffffffffffffffffffffffffffffe09092019160209182019101615478565b6001836020036101000a0380198251168184511680821785525050505050509050019150506000604051808303816000865af19150503d8060008114615517576040519150601f19603f3d011682016040523d82523d6000602084013e61551c565b606091505b509150915081801561554a57508051158061554a575080806020019051602081101561554757600080fd5b50515b61454d5760405162461bcd60e51b815260040180806020018281038252602d815260200180615a62602d913960400191505060405180910390fd5b60008115806155a05750508082028282828161559d57fe5b04145b611ca3576040805162461bcd60e51b815260206004820152601460248201527f64732d6d6174682d6d756c2d6f766572666c6f77000000000000000000000000604482015290519081900360640190fd5b80820182811015611ca3576040805162461bcd60e51b815260206004820152601460248201527f64732d6d6174682d6164642d6f766572666c6f77000000000000000000000000604482015290519081900360640190fd5b60008060006156588585614e08565b509050600080615669888888613f67565b6001600160a01b0316630902f1ac6040518163ffffffff1660e01b815260040160606040518083038186803b1580156156a157600080fd5b505afa1580156156b5573d6000803e3d6000fd5b505050506040513d60608110156156cb57600080fd5b5080516020909101516dffffffffffffffffffffffffffff91821693501690506001600160a01b0387811690841614615705578082615708565b81815b90999098509650505050505050565b604080516001600160a01b0385811660248301528481166044830152606480830185905283518084039091018152608490920183526020820180517bffffffffffffffffffffffffffffffffffffffffffffffffffffffff167f23b872dd0000000000000000000000000000000000000000000000000000000017815292518251600094606094938a169392918291908083835b602083106157e857805182527fffffffffffffffffffffffffffffffffffffffffffffffffffffffffffffffe090920191602091820191016157ab565b6001836020036101000a0380198251168184511680821785525050505050509050019150506000604051808303816000865af19150503d806000811461584a576040519150601f19603f3d011682016040523d82523d6000602084013e61584f565b606091505b509150915081801561587d57508051158061587d575080806020019051602081101561587a57600080fd5b50515b6158b85760405162461bcd60e51b81526004018080602001828103825260318152602001806158ed6031913960400191505060405180910390fd5b50505050505056fe556e697377617056324c6962726172793a20494e53554646494349454e545f4f55545055545f414d4f554e545472616e7366657248656c7065723a3a7472616e7366657246726f6d3a207472616e7366657246726f6d206661696c65645472616e7366657248656c7065723a3a736166655472616e736665724554483a20455448207472616e73666572206661696c6564556e697377617056324c6962726172793a204944454e544943414c5f414444524553534553556e69737761705632526f757465723a20494e53554646494349454e545f425f414d4f554e54556e697377617056324c6962726172793a20494e53554646494349454e545f4c4951554944495459556e697377617056324c6962726172793a20494e53554646494349454e545f414d4f554e54556e69737761705632526f757465723a204558434553534956455f494e5055545f414d4f554e54556e69737761705632526f757465723a20494e53554646494349454e545f415f414d4f554e54556e69737761705632526f757465723a20494e53554646494349454e545f4f55545055545f414d4f554e545472616e7366657248656c7065723a3a736166655472616e736665723a207472616e73666572206661696c6564556e697377617056324c6962726172793a20494e53554646494349454e545f494e5055545f414d4f554e54a2646970667358221220cb859cd5bfee613f8cb91353421c0c0c8dab05ba432bc229f28aeef07b2d790964736f6c63430006060033",
  "devdoc": {
    "methods": {}
  },
  "userdoc": {
    "methods": {}
  },
  "storageLayout": {
    "storage": [],
    "types": null
  }
}